{
  "contractName": "StocksBettingController",
  "abi": [
    {
      "constant": false,
      "inputs": [
        {
          "name": "_status",
          "type": "bool"
        }
      ],
      "name": "setPause",
      "outputs": [],
      "payable": false,
      "stateMutability": "nonpayable",
      "type": "function"
    },
    {
      "constant": false,
      "inputs": [],
      "name": "createBetting",
      "outputs": [],
      "payable": false,
      "stateMutability": "nonpayable",
      "type": "function"
    },
    {
      "inputs": [],
      "payable": true,
      "stateMutability": "payable",
      "type": "constructor"
    },
    {
      "anonymous": false,
      "inputs": [
        {
          "indexed": false,
          "name": "_address",
          "type": "address"
        },
        {
          "indexed": false,
          "name": "_owner",
          "type": "address"
        },
        {
          "indexed": false,
          "name": "_time",
          "type": "uint256"
        }
      ],
      "name": "BettingDeployed",
      "type": "event"
    }
  ],
  "bytecode": "0x6060604052336000806101000a81548173ffffffffffffffffffffffffffffffffffffffff021916908373ffffffffffffffffffffffffffffffffffffffff16021790555061608d806100536000396000f3006060604052600436106200004f576000357c0100000000000000000000000000000000000000000000000000000000900463ffffffff168063bedb86fb1462000054578063f0263f40146200007c575b600080fd5b34156200006057600080fd5b6200007a6004808035151590602001909190505062000094565b005b34156200008857600080fd5b620000926200010d565b005b6000809054906101000a900473ffffffffffffffffffffffffffffffffffffffff1673ffffffffffffffffffffffffffffffffffffffff163373ffffffffffffffffffffffffffffffffffffffff16141515620000f057600080fd5b80600060146101000a81548160ff02191690831515021790555050565b600060149054906101000a900460ff161515156200012a57600080fd5b67016345785d8a00006200013d620004a4565b6040518091039082f08015156200015357600080fd5b9050600160006101000a81548173ffffffffffffffffffffffffffffffffffffffff021916908373ffffffffffffffffffffffffffffffffffffffff1602179055504260026000600160009054906101000a900473ffffffffffffffffffffffffffffffffffffffff1673ffffffffffffffffffffffffffffffffffffffff1673ffffffffffffffffffffffffffffffffffffffff16815260200190815260200160002081905550600160009054906101000a900473ffffffffffffffffffffffffffffffffffffffff1673ffffffffffffffffffffffffffffffffffffffff1663e53e38296103c0603c6000604051602001526040518363ffffffff167c01000000000000000000000000000000000000000000000000000000000281526004018080602001806020018581526020018481526020018381038352600a8152602001807f323031382d30322d303700000000000000000000000000000000000000000000815250602001838103825260138152602001807f323031382d30322d30382031353a30313a303000000000000000000000000000815250602001945050505050602060405180830381600087803b15156200031257600080fd5b6102c65a03f115156200032457600080fd5b5050506040518051905015156200033757fe5b7f098617c1c7475fab50c654f7ed3d8ca12c721839b77c88cae022577e5b1e6624600160009054906101000a900473ffffffffffffffffffffffffffffffffffffffff16600160009054906101000a900473ffffffffffffffffffffffffffffffffffffffff1673ffffffffffffffffffffffffffffffffffffffff16638da5cb5b6000604051602001526040518163ffffffff167c0100000000000000000000000000000000000000000000000000000000028152600401602060405180830381600087803b15156200040a57600080fd5b6102c65a03f115156200041c57600080fd5b5050506040518051905042604051808473ffffffffffffffffffffffffffffffffffffffff1673ffffffffffffffffffffffffffffffffffffffff1681526020018373ffffffffffffffffffffffffffffffffffffffff1673ffffffffffffffffffffffffffffffffffffffff168152602001828152602001935050505060405180910390a1565b604051615bac80620004b68339019056006060604052600360085560006009556200007560017f01000000000000000000000000000000000000000000000000000000000000000260107f010000000000000000000000000000000000000000000000000000000000000002176200018f640100000000026200460c176401000000009004565b33600560006101000a81548173ffffffffffffffffffffffffffffffffffffffff021916908373ffffffffffffffffffffffffffffffffffffffff160217905550620000db3460095462000516640100000000026200339f179091906401000000009004565b50620000ff63ee6b280062000535640100000000026200495e176401000000009004565b7f4141504c00000000000000000000000000000000000000000000000000000000600f60030181600019169055507f4d53465400000000000000000000000000000000000000000000000000000000600f60040181600019169055507f474f4f4700000000000000000000000000000000000000000000000000000000600f600501816000191690555062000f04565b60008060009054906101000a900473ffffffffffffffffffffffffffffffffffffffff1673ffffffffffffffffffffffffffffffffffffffff1614806200021557506000620002136000809054906101000a900473ffffffffffffffffffffffffffffffffffffffff16620008786401000000000262003f3d176401000000009004565b145b156200023d576200023b6000620008836401000000000262003f48176401000000009004565b505b6000809054906101000a900473ffffffffffffffffffffffffffffffffffffffff1673ffffffffffffffffffffffffffffffffffffffff166338cc48316000604051602001526040518163ffffffff167c0100000000000000000000000000000000000000000000000000000000028152600401602060405180830381600087803b1515620002cb57600080fd5b6102c65a03f11515620002dd57600080fd5b5050506040518051905073ffffffffffffffffffffffffffffffffffffffff16600160009054906101000a900473ffffffffffffffffffffffffffffffffffffffff1673ffffffffffffffffffffffffffffffffffffffff1614151562000429576000809054906101000a900473ffffffffffffffffffffffffffffffffffffffff1673ffffffffffffffffffffffffffffffffffffffff166338cc48316000604051602001526040518163ffffffff167c0100000000000000000000000000000000000000000000000000000000028152600401602060405180830381600087803b1515620003cc57600080fd5b6102c65a03f11515620003de57600080fd5b50505060405180519050600160006101000a81548173ffffffffffffffffffffffffffffffffffffffff021916908373ffffffffffffffffffffffffffffffffffffffff1602179055505b600160009054906101000a900473ffffffffffffffffffffffffffffffffffffffff1673ffffffffffffffffffffffffffffffffffffffff1663688dcfd7826040518263ffffffff167c010000000000000000000000000000000000000000000000000000000002815260040180827effffffffffffffffffffffffffffffffffffffffffffffffffffffffffffff19167effffffffffffffffffffffffffffffffffffffffffffffffffffffffffffff19168152602001915050600060405180830381600087803b1515620004fe57600080fd5b6102c65a03f115156200051057600080fd5b50505050565b60008082840190508381101515156200052b57fe5b8091505092915050565b60008060009054906101000a900473ffffffffffffffffffffffffffffffffffffffff1673ffffffffffffffffffffffffffffffffffffffff161480620005bb57506000620005b96000809054906101000a900473ffffffffffffffffffffffffffffffffffffffff16620008786401000000000262003f3d176401000000009004565b145b15620005e357620005e16000620008836401000000000262003f48176401000000009004565b505b6000809054906101000a900473ffffffffffffffffffffffffffffffffffffffff1673ffffffffffffffffffffffffffffffffffffffff166338cc48316000604051602001526040518163ffffffff167c0100000000000000000000000000000000000000000000000000000000028152600401602060405180830381600087803b15156200067157600080fd5b6102c65a03f115156200068357600080fd5b5050506040518051905073ffffffffffffffffffffffffffffffffffffffff16600160009054906101000a900473ffffffffffffffffffffffffffffffffffffffff1673ffffffffffffffffffffffffffffffffffffffff16141515620007cf576000809054906101000a900473ffffffffffffffffffffffffffffffffffffffff1673ffffffffffffffffffffffffffffffffffffffff166338cc48316000604051602001526040518163ffffffff167c0100000000000000000000000000000000000000000000000000000000028152600401602060405180830381600087803b15156200077257600080fd5b6102c65a03f115156200078457600080fd5b50505060405180519050600160006101000a81548173ffffffffffffffffffffffffffffffffffffffff021916908373ffffffffffffffffffffffffffffffffffffffff1602179055505b600160009054906101000a900473ffffffffffffffffffffffffffffffffffffffff1673ffffffffffffffffffffffffffffffffffffffff1663ca6ad1e4826040518263ffffffff167c010000000000000000000000000000000000000000000000000000000002815260040180828152602001915050600060405180830381600087803b15156200086057600080fd5b6102c65a03f115156200087257600080fd5b50505050565b6000813b9050919050565b6000620008a3620008aa6401000000000262003fa4176401000000009004565b9050919050565b600080620008e0731d3b2638a7cc9f2cb3d298a3da7a90b67e5506ed620008786401000000000262003f3d176401000000009004565b11156200099957731d3b2638a7cc9f2cb3d298a3da7a90b67e5506ed6000806101000a81548173ffffffffffffffffffffffffffffffffffffffff021916908373ffffffffffffffffffffffffffffffffffffffff1602179055506200098f6040805190810160405280600b81526020017f6574685f6d61696e6e657400000000000000000000000000000000000000000081525062000e396401000000000262004433176401000000009004565b6001905062000e36565b6000620009ce73c03a2615d5efaf5f49f60b7bb6583eaec212fdf1620008786401000000000262003f3d176401000000009004565b111562000a875773c03a2615d5efaf5f49f60b7bb6583eaec212fdf16000806101000a81548173ffffffffffffffffffffffffffffffffffffffff021916908373ffffffffffffffffffffffffffffffffffffffff16021790555062000a7d6040805190810160405280600c81526020017f6574685f726f707374656e33000000000000000000000000000000000000000081525062000e396401000000000262004433176401000000009004565b6001905062000e36565b600062000abc73b7a07bcf2ba2f2703b24c0691b5278999c59ac7e620008786401000000000262003f3d176401000000009004565b111562000b755773b7a07bcf2ba2f2703b24c0691b5278999c59ac7e6000806101000a81548173ffffffffffffffffffffffffffffffffffffffff021916908373ffffffffffffffffffffffffffffffffffffffff16021790555062000b6b6040805190810160405280600981526020017f6574685f6b6f76616e000000000000000000000000000000000000000000000081525062000e396401000000000262004433176401000000009004565b6001905062000e36565b600062000baa73146500cfd35b22e4a392fe0adc06de1a1368ed48620008786401000000000262003f3d176401000000009004565b111562000c635773146500cfd35b22e4a392fe0adc06de1a1368ed486000806101000a81548173ffffffffffffffffffffffffffffffffffffffff021916908373ffffffffffffffffffffffffffffffffffffffff16021790555062000c596040805190810160405280600b81526020017f6574685f72696e6b65627900000000000000000000000000000000000000000081525062000e396401000000000262004433176401000000009004565b6001905062000e36565b600062000c98736f485c8bf6fc43ea212e93bbf8ce046c7f1cb475620008786401000000000262003f3d176401000000009004565b111562000cfd57736f485c8bf6fc43ea212e93bbf8ce046c7f1cb4756000806101000a81548173ffffffffffffffffffffffffffffffffffffffff021916908373ffffffffffffffffffffffffffffffffffffffff1602179055506001905062000e36565b600062000d327320e12a1f859b3feae5fb2a0a32c18f5a65555bbf620008786401000000000262003f3d176401000000009004565b111562000d97577320e12a1f859b3feae5fb2a0a32c18f5a65555bbf6000806101000a81548173ffffffffffffffffffffffffffffffffffffffff021916908373ffffffffffffffffffffffffffffffffffffffff1602179055506001905062000e36565b600062000dcc7351efaf4c8b3c9afbd5ab9f4bbc82784ab6ef8faa620008786401000000000262003f3d176401000000009004565b111562000e31577351efaf4c8b3c9afbd5ab9f4bbc82784ab6ef8faa6000806101000a81548173ffffffffffffffffffffffffffffffffffffffff021916908373ffffffffffffffffffffffffffffffffffffffff1602179055506001905062000e36565b600090505b90565b806002908051906020019062000e5192919062000e55565b5050565b828054600181600116156101000203166002900490600052602060002090601f016020900481019282601f1062000e9857805160ff191683800117855562000ec9565b8280016001018555821562000ec9579182015b8281111562000ec857825182559160200191906001019062000eab565b5b50905062000ed8919062000edc565b5090565b62000f0191905b8082111562000efd57600081600090555060010162000ee3565b5090565b90565b614c988062000f146000396000f300606060405260043610610128576000357c0100000000000000000000000000000000000000000000000000000000900463ffffffff168063090aaa871461012d57806327dc297e1461018f57806328acd911146101f95780632a8ec72a1461025857806338bbfa50146102815780634898471a1461032e57806354fd4d501461035757806355bf4785146103e55780635cccf41f146104e65780635f7192ff146104fb5780636409f92114610552578063750142e61461056757806385ba0052146105905780638da5cb5b146106015780638dfcc37a14610656578063abbd1ab71461076f578063b3eeb33e14610888578063ddceafa9146108a4578063e53e3829146108b9578063ecfb49a314610978578063fb8f6ea0146109a1578063fc145210146109bd575b600080fd5b341561013857600080fd5b6101526004808035600019169060200190919050506109e6565b6040518087815260200186815260200185815260200184815260200183815260200182151515158152602001965050505050505060405180910390f35b341561019a57600080fd5b6101f760048080356000191690602001909190803590602001908201803590602001908080601f01602080910402602001604051908101604052809392919081815260200183838082843782019150505050505091905050610a2f565b005b341561020457600080fd5b610230600480803573ffffffffffffffffffffffffffffffffffffffff16906020019091905050610a61565b6040518084815260200183815260200182151515158152602001935050505060405180910390f35b341561026357600080fd5b61026b610a98565b6040518082815260200191505060405180910390f35b341561028c57600080fd5b61032c60048080356000191690602001909190803590602001908201803590602001908080601f0160208091040260200160405190810160405280939291908181526020018383808284378201915050505050509190803590602001908201803590602001908080601f01602080910402602001604051908101604052809392919081815260200183838082843782019150505050505091905050610b22565b005b341561033957600080fd5b610341610c7d565b6040518082815260200191505060405180910390f35b341561036257600080fd5b61036a610c83565b6040518080602001828103825283818151815260200191508051906020019080838360005b838110156103aa57808201518184015260208101905061038f565b50505050905090810190601f1680156103d75780820380516001836020036101000a031916815260200191505b509250505060405180910390f35b34156103f057600080fd5b6103f8610cbc565b60405180858152602001806020018060200180602001848103845287818151815260200191508051906020019060200280838360005b8381101561044957808201518184015260208101905061042e565b50505050905001848103835286818151815260200191508051906020019060200280838360005b8381101561048b578082015181840152602081019050610470565b50505050905001848103825285818151815260200191508051906020019060200280838360005b838110156104cd5780820151818401526020810190506104b2565b5050505090500197505050505050505060405180910390f35b34156104f157600080fd5b6104f9610e8a565b005b341561050657600080fd5b610520600480803560001916906020019091905050610fae565b604051808681526020018581526020018481526020018381526020018281526020019550505050505060405180910390f35b341561055d57600080fd5b610565611064565b005b341561057257600080fd5b61057a611219565b6040518082815260200191505060405180910390f35b341561059b57600080fd5b6105eb600480803590602001908201803590602001908080601f0160208091040260200160405190810160405280939291908181526020018383808284378201915050505050509190505061121f565b6040518082815260200191505060405180910390f35b341561060c57600080fd5b6106146113df565b604051808273ffffffffffffffffffffffffffffffffffffffff1673ffffffffffffffffffffffffffffffffffffffff16815260200191505060405180910390f35b341561066157600080fd5b6106f4600480803590602001908201803590602001908080601f0160208091040260200160405190810160405280939291908181526020018383808284378201915050505050509190803590602001908201803590602001908080601f01602080910402602001604051908101604052809392919081815260200183838082843782019150505050505091905050611405565b6040518080602001828103825283818151815260200191508051906020019080838360005b83811015610734578082015181840152602081019050610719565b50505050905090810190601f1680156107615780820380516001836020036101000a031916815260200191505b509250505060405180910390f35b341561077a57600080fd5b61080d600480803590602001908201803590602001908080601f0160208091040260200160405190810160405280939291908181526020018383808284378201915050505050509190803590602001908201803590602001908080601f016020809104026020016040519081016040528093929190818152602001838380828437820191505050505050919050506115e1565b6040518080602001828103825283818151815260200191508051906020019080838360005b8381101561084d578082015181840152602081019050610832565b50505050905090810190601f16801561087a5780820380516001836020036101000a031916815260200191505b509250505060405180910390f35b6108a26004808035600019169060200190919050506117bd565b005b34156108af57600080fd5b6108b7611a5f565b005b61095e600480803590602001908201803590602001908080601f0160208091040260200160405190810160405280939291908181526020018383808284378201915050505050509190803590602001908201803590602001908080601f01602080910402602001604051908101604052809392919081815260200183838082843782019150505050505091908035906020019091908035906020019091905050611b4d565b604051808215151515815260200191505060405180910390f35b341561098357600080fd5b61098b611fca565b6040518082815260200191505060405180910390f35b6109bb600480803560001916906020019091905050611fd0565b005b34156109c857600080fd5b6109d06123d2565b6040518082815260200191505060405180910390f35b600b6020528060005260406000206000915090508060000154908060010154908060020154908060030154908060040154908060050160009054906101000a900460ff16905086565b610a5d82826000604051805910610a435750595b9080825280601f01601f1916602001820160405250610b22565b5050565b600c6020528060005260406000206000915090508060000154908060010154908060020160009054906101000a900460ff16905083565b6000601560000160029054906101000a900460ff161515610ab857600080fd5b600c60003373ffffffffffffffffffffffffffffffffffffffff1673ffffffffffffffffffffffffffffffffffffffff16815260200190815260200160002060020160009054906101000a900460ff16151515610b1457600080fd5b610b1d33612467565b905090565b610b2a61268d565b73ffffffffffffffffffffffffffffffffffffffff163373ffffffffffffffffffffffffffffffffffffffff16141515610b6357600080fd5b600a6000846000191660001916815260200190815260200160002054600681600019169055507f436865636b53657276696365000000000000000000000000000000000000000060001916600654600019161415610bde576001601560000160016101000a81548160ff021916908315150217905550610c78565b601560000160019054906101000a900460ff161515610c2957610c008261121f565b600b60006006546000191660001916815260200190815260200160002060010181905550610c77565b610c328261121f565b600b6000600654600019166000191681526020019081526020016000206002018190555060016008540360088190555060006008541415610c7657610c756129a3565b5b5b5b505050565b60095481565b6040805190810160405280600581526020017f302e302e3100000000000000000000000000000000000000000000000000000081525081565b6000610cc661444d565b610cce614461565b610cd6614475565b6000610ce061444d565b610ce8614461565b610cf0614475565b600080600c60003373ffffffffffffffffffffffffffffffffffffffff1673ffffffffffffffffffffffffffffffffffffffff16815260200190815260200160002095508560030180549050604051805910610d495750595b908082528060200260200182016040525094508560030180549050604051805910610d715750595b908082528060200260200182016040525093508560030180549050604051805910610d995750595b90808252806020026020018201604052509250600091505b8560030180549050821015610e6e578560030182815481101515610dd157fe5b9060005260206000209060030201905080600001548583815181101515610df457fe5b90602001906020020190600019169081600019168152505080600101548483815181101515610e1f57fe5b90602001906020020181815250508060020160009054906101000a900460ff168383815181101515610e4d57fe5b90602001906020020190151590811515815250508180600101925050610db1565b8560000154858585995099509950995050505050505090919293565b3373ffffffffffffffffffffffffffffffffffffffff16600560009054906101000a900473ffffffffffffffffffffffffffffffffffffffff1673ffffffffffffffffffffffffffffffffffffffff16141515610ee657600080fd5b6015600101546015600201540142111515610f0057600080fd5b601560000160009054906101000a900460ff168015610f2f5750601560000160019054906101000a900460ff16155b80610f655750601560000160019054906101000a900460ff168015610f645750601560000160029054906101000a900460ff16155b5b1515610f7057600080fd5b6001601560000160036101000a81548160ff0219169083151502179055506001601560000160026101000a81548160ff021916908315150217905550565b6000806000806000600b6000876000191660001916815260200190815260200160002060000154600b6000886000191660001916815260200190815260200160002060010154600b6000896000191660001916815260200190815260200160002060020154600b60008a6000191660001916815260200190815260200160002060030154600b60008b60001916600019168152602001908152602001600020600401549450945094509450945091939590929450565b6000601560000160029054906101000a900460ff16151561108457600080fd5b600c60003373ffffffffffffffffffffffffffffffffffffffff1673ffffffffffffffffffffffffffffffffffffffff16815260200190815260200160002060020160009054906101000a900460ff161515156110e057600080fd5b6110e933612467565b9050803073ffffffffffffffffffffffffffffffffffffffff163111151561111057600080fd5b6001600c60003373ffffffffffffffffffffffffffffffffffffffff1673ffffffffffffffffffffffffffffffffffffffff16815260200190815260200160002060020160006101000a81548160ff0219169083151502179055503373ffffffffffffffffffffffffffffffffffffffff166108fc829081150290604051600060405180830381858888f1935050505015156111ab57600080fd5b7f884edad9ce6fa2440d8a54cc123490eb96d2768479d49ff9c7366125a94243643382604051808373ffffffffffffffffffffffffffffffffffffffff1673ffffffffffffffffffffffffffffffffffffffff1681526020018281526020019250505060405180910390a150565b600d5481565b600080600061122c614489565b600080600294506000935086925060009550600091505b82518210156113b857600115158415151415611260576001850394505b602e838381518110151561127057fe5b9060200101517f010000000000000000000000000000000000000000000000000000000000000090047f0100000000000000000000000000000000000000000000000000000000000000027f0100000000000000000000000000000000000000000000000000000000000000900414156112e957600193505b82828151811015156112f757fe5b9060200101517f010000000000000000000000000000000000000000000000000000000000000090047f0100000000000000000000000000000000000000000000000000000000000000027f01000000000000000000000000000000000000000000000000000000000000009004905060308110158015611379575060398111155b1561138a5760308103600a87020195505b6001151584151514801561139e5750600085145b156113ab578595506113d5565b8180600101925050611243565b5b6000851415156113d457600a860295506001850394506113b9565b5b5050505050919050565b600560009054906101000a900473ffffffffffffffffffffffffffffffffffffffff1681565b61140d61449d565b61141561449d565b61141d61449d565b61142561449d565b61142d61449d565b608060405190810160405280605281526020017f6a736f6e2868747470733a2f2f7777772e616c70686176616e746167652e636f81526020017f2f71756572793f66756e6374696f6e3d54494d455f5345524945535f4441494c81526020017f595f41444a55535445442673796d626f6c3d00000000000000000000000000008152509350606060405190810160405280603181526020017f266170696b65793d464757524a474439494143443853485a292e2754696d652081526020017f53657269657320284461696c7929272e2700000000000000000000000000000081525092506040805190810160405280600c81526020017f272e27342e20636c6f7365270000000000000000000000000000000000000000815250915061158e611555846132f3565b61158061157b6115648b6132f3565b61156d896132f3565b61332190919063ffffffff16565b6132f3565b61332190919063ffffffff16565b90506115d561159c836132f3565b6115c76115c26115ab8a6132f3565b6115b4866132f3565b61332190919063ffffffff16565b6132f3565b61332190919063ffffffff16565b94505050505092915050565b6115e961449d565b6115f161449d565b6115f961449d565b61160161449d565b61160961449d565b608060405190810160405280604c81526020017f6a736f6e2868747470733a2f2f7777772e616c70686176616e746167652e636f81526020017f2f71756572793f66756e6374696f6e3d54494d455f5345524945535f494e545281526020017f414441592673796d626f6c3d00000000000000000000000000000000000000008152509350606060405190810160405280603081526020017f266170696b65793d464757524a474439494143443853485a292e2754696d652081526020017f5365726965732028316d696e29272e270000000000000000000000000000000081525092506040805190810160405280600c81526020017f272e27342e20636c6f7365270000000000000000000000000000000000000000815250915061176a611731846132f3565b61175c6117576117408b6132f3565b611749896132f3565b61332190919063ffffffff16565b6132f3565b61332190919063ffffffff16565b90506117b1611778836132f3565b6117a361179e6117878a6132f3565b611790866132f3565b61332190919063ffffffff16565b6132f3565b61332190919063ffffffff16565b94505050505092915050565b6117c56144b1565b601560000160009054906101000a900460ff1615156117e357600080fd5b601560000160019054906101000a900460ff1615151561180257600080fd5b67016345785d8a000034101580156118225750670de0b6b3a76400003411155b151561182d57600080fd5b348160200181815250508181600001906000191690816000191681525050600c60003373ffffffffffffffffffffffffffffffffffffffff1673ffffffffffffffffffffffffffffffffffffffff168152602001908152602001600020600301805480600101828161189f91906144d8565b91600052602060002090600302016000839091909150600082015181600001906000191690556020820151816001015560408201518160020160006101000a81548160ff0219169083151502179055505050506119486001600c60003373ffffffffffffffffffffffffffffffffffffffff1673ffffffffffffffffffffffffffffffffffffffff1681526020019081526020016000206000015461339f90919063ffffffff16565b5061197a34600b600085600019166000191681526020019081526020016000206000015461339f90919063ffffffff16565b600b60008460001916600019168152602001908152602001600020600001819055506119ce6001600b600085600019166000191681526020019081526020016000206003015461339f90919063ffffffff16565b600b60008460001916600019168152602001908152602001600020600301819055507fe1fffcc4923d04b559f4d29a8bfc6cda04eb5b0d3c460751c2402c5c5cc9109c3334604051808373ffffffffffffffffffffffffffffffffffffffff1673ffffffffffffffffffffffffffffffffffffffff1681526020018281526020019250505060405180910390a15050565b3373ffffffffffffffffffffffffffffffffffffffff16600560009054906101000a900473ffffffffffffffffffffffffffffffffffffffff1673ffffffffffffffffffffffffffffffffffffffff16141515611abb57600080fd5b62278d00601560010154601560020154010142111515611ada57600080fd5b601560000160039054906101000a900460ff1680611b075750601560000160029054906101000a900460ff165b1515611b1257600080fd5b600560009054906101000a900473ffffffffffffffffffffffffffffffffffffffff1673ffffffffffffffffffffffffffffffffffffffff16ff5b6000803373ffffffffffffffffffffffffffffffffffffffff16600560009054906101000a900473ffffffffffffffffffffffffffffffffffffffff1673ffffffffffffffffffffffffffffffffffffffff16141515611bac57600080fd5b601560000160009054906101000a900460ff16151515611bcb57600080fd5b60063073ffffffffffffffffffffffffffffffffffffffff1631811515611bee57fe5b04611c2d6040805190810160405280600381526020017f55524c00000000000000000000000000000000000000000000000000000000008152506133bd565b1115611cf0577f46cb989ef9cef13e930e3b7f286225a086e716a90d63e0b7da85d310a9db0c9a60405180806020018281038252604b8152602001807f4f7261636c697a6520717565727920776173204e4f542073656e742c20706c6581526020017f6173652061646420736f6d652045544820746f20636f76657220666f7220746881526020017f652071756572792066656500000000000000000000000000000000000000000081525060600191505060405180910390a160009150611fc1565b426015600201819055506001601560000160006101000a81548160ff0219169083151502179055507f46cb989ef9cef13e930e3b7f286225a086e716a90d63e0b7da85d310a9db0c9a6040518080602001828103825260358152602001807f4f7261636c697a65207175657279207761732073656e742c207374616e64696e81526020017f6720627920666f722074686520616e737765722e2e000000000000000000000081525060400191505060405180910390a1611e236040805190810160405280600381526020017f55524c0000000000000000000000000000000000000000000000000000000000815250611e1e6040805190810160405280600481526020017f4d5346540000000000000000000000000000000000000000000000000000000081525089611405565b613745565b60078160001916905550600f60040154600a6000600754600019166000191681526020019081526020016000208160001916905550611ed56040805190810160405280600381526020017f55524c0000000000000000000000000000000000000000000000000000000000815250611ed06040805190810160405280600481526020017f4141504c0000000000000000000000000000000000000000000000000000000081525089611405565b613745565b60078160001916905550600f60030154600a6000600754600019166000191681526020019081526020016000208160001916905550611f876040805190810160405280600381526020017f55524c0000000000000000000000000000000000000000000000000000000000815250611f826040805190810160405280600481526020017f474f4f470000000000000000000000000000000000000000000000000000000081525089611405565b613745565b60078160001916905550600f60050154600a6000600754600019166000191681526020019081526020016000208160001916905550600191505b50949350505050565b600e5481565b6000601560000160009054906101000a900460ff161515611ff057600080fd5b601560000160019054906101000a900460ff1615151561200f57600080fd5b6000600c60003373ffffffffffffffffffffffffffffffffffffffff1673ffffffffffffffffffffffffffffffffffffffff1681526020019081526020016000206000015411156123ce57600090505b600c60003373ffffffffffffffffffffffffffffffffffffffff1673ffffffffffffffffffffffffffffffffffffffff168152602001908152602001600020600001548110156123cd57600c60003373ffffffffffffffffffffffffffffffffffffffff1673ffffffffffffffffffffffffffffffffffffffff168152602001908152602001600020600301818154811015156120f857fe5b906000526020600020906003020160020160009054906101000a900460ff1615156123c0576121736001600c60003373ffffffffffffffffffffffffffffffffffffffff1673ffffffffffffffffffffffffffffffffffffffff1681526020019081526020016000206001015461339f90919063ffffffff16565b506001600c60003373ffffffffffffffffffffffffffffffffffffffff1673ffffffffffffffffffffffffffffffffffffffff168152602001908152602001600020600301828154811015156121c557fe5b906000526020600020906003020160020160006101000a81548160ff02191690831515021790555061227e600c60003373ffffffffffffffffffffffffffffffffffffffff1673ffffffffffffffffffffffffffffffffffffffff1681526020019081526020016000206003018281548110151561223f57fe5b906000526020600020906003020160010154600b6000856000191660001916815260200190815260200160002060000154613ece90919063ffffffff16565b600b60008460001916600019168152602001908152602001600020600001819055506122d26001600b600085600019166000191681526020019081526020016000206004015461339f90919063ffffffff16565b600b60008460001916600019168152602001908152602001600020600301819055507f884edad9ce6fa2440d8a54cc123490eb96d2768479d49ff9c7366125a942436433600c60003373ffffffffffffffffffffffffffffffffffffffff1673ffffffffffffffffffffffffffffffffffffffff1681526020019081526020016000206003018381548110151561236557fe5b906000526020600020906003020160010154604051808373ffffffffffffffffffffffffffffffffffffffff1673ffffffffffffffffffffffffffffffffffffffff1681526020018281526020019250505060405180910390a15b808060010191505061205f565b5b5050565b6000612462600b6000600f600501546000191660001916815260200190815260200160002060000154612454600b6000600f600401546000191660001916815260200190815260200160002060000154600b6000600f60030154600019166000191681526020019081526020016000206000015461339f90919063ffffffff16565b61339f90919063ffffffff16565b905090565b6000806000601560000160029054906101000a900460ff16151561248a57600080fd5b600c60008573ffffffffffffffffffffffffffffffffffffffff1673ffffffffffffffffffffffffffffffffffffffff1681526020019081526020016000209050601560000160039054906101000a900460ff16151561260957600091505b806000015482101561260457806003018281548110151561250657fe5b906000526020600020906003020160020160009054906101000a900460ff1615156125f757600b6000826003018481548110151561254057fe5b9060005260206000209060030201600001546000191660001916815260200190815260200160002060050160009054906101000a900460ff16156125f6576125f16127106125e3836003018581548110151561259857fe5b9060005260206000209060030201600101546125d5600e546125c7612710600d54613ee790919063ffffffff16565b613f2290919063ffffffff16565b613ee790919063ffffffff16565b613f2290919063ffffffff16565b830192505b5b81806001019250506124e9565b612686565b600091505b806000015482101561268557806003018281548110151561262b57fe5b906000526020600020906003020160020160009054906101000a900460ff16151561267857806003018281548110151561266157fe5b906000526020600020906003020160010154830192505b818060010192505061260e565b5b5050919050565b6000806000809054906101000a900473ffffffffffffffffffffffffffffffffffffffff1673ffffffffffffffffffffffffffffffffffffffff1614806126fd575060006126fb6000809054906101000a900473ffffffffffffffffffffffffffffffffffffffff16613f3d565b145b1561270e5761270c6000613f48565b505b6000809054906101000a900473ffffffffffffffffffffffffffffffffffffffff1673ffffffffffffffffffffffffffffffffffffffff166338cc48316000604051602001526040518163ffffffff167c0100000000000000000000000000000000000000000000000000000000028152600401602060405180830381600087803b151561279b57600080fd5b6102c65a03f115156127ac57600080fd5b5050506040518051905073ffffffffffffffffffffffffffffffffffffffff16600160009054906101000a900473ffffffffffffffffffffffffffffffffffffffff1673ffffffffffffffffffffffffffffffffffffffff161415156128f5576000809054906101000a900473ffffffffffffffffffffffffffffffffffffffff1673ffffffffffffffffffffffffffffffffffffffff166338cc48316000604051602001526040518163ffffffff167c0100000000000000000000000000000000000000000000000000000000028152600401602060405180830381600087803b151561289957600080fd5b6102c65a03f115156128aa57600080fd5b50505060405180519050600160006101000a81548173ffffffffffffffffffffffffffffffffffffffff021916908373ffffffffffffffffffffffffffffffffffffffff1602179055505b600160009054906101000a900473ffffffffffffffffffffffffffffffffffffffff1673ffffffffffffffffffffffffffffffffffffffff1663c281d19e6000604051602001526040518163ffffffff167c0100000000000000000000000000000000000000000000000000000000028152600401602060405180830381600087803b151561298357600080fd5b6102c65a03f1151561299457600080fd5b50505060405180519050905090565b6000600b6000600f600301546000191660001916815260200190815260200160002060010154612710600b6000600f600301546000191660001916815260200190815260200160002060010154600b6000600f6003015460001916600019168152602001908152602001600020600201540302811515612a1f57fe5b05600f60000181905550600b6000600f600401546000191660001916815260200190815260200160002060010154612710600b6000600f600401546000191660001916815260200190815260200160002060010154600b6000600f6004015460001916600019168152602001908152602001600020600201540302811515612aa357fe5b05600f60010181905550600b6000600f600501546000191660001916815260200190815260200160002060010154612710600b6000600f600501546000191660001916815260200190815260200160002060010154600b6000600f6005015460001916600019168152602001908152602001600020600201540302811515612b2757fe5b05600f60020181905550612b5d6009543073ffffffffffffffffffffffffffffffffffffffff1631613ece90919063ffffffff16565b600d81905550612b8c6064612b7e6005600d54613ee790919063ffffffff16565b613f2290919063ffffffff16565b9050612ba381600d54613ece90919063ffffffff16565b600d81905550612bbe6009548261339f90919063ffffffff16565b9050803073ffffffffffffffffffffffffffffffffffffffff1631111515612be557600080fd5b600560009054906101000a900473ffffffffffffffffffffffffffffffffffffffff1673ffffffffffffffffffffffffffffffffffffffff166108fc829081150290604051600060405180830381858888f193505050501515612c4757600080fd5b600f60010154600f600001541315612e3157600f60020154600f600001541315612cd6576001600b6000600f600301546000191660001916815260200190815260200160002060050160006101000a81548160ff021916908315150217905550600b6000600f600301546000191660001916815260200190815260200160002060000154600e81905550612e2c565b600f60000154600f600201541315612d53576001600b6000600f600501546000191660001916815260200190815260200160002060050160006101000a81548160ff021916908315150217905550600b6000600f600501546000191660001916815260200190815260200160002060000154600e81905550612e2b565b6001600b6000600f600301546000191660001916815260200190815260200160002060050160006101000a81548160ff0219169083151502179055506001600b6000600f600501546000191660001916815260200190815260200160002060050160006101000a81548160ff021916908315150217905550612e24600b6000600f600501546000191660001916815260200190815260200160002060000154600b6000600f60030154600019166000191681526020019081526020016000206000015461339f90919063ffffffff16565b600e819055505b5b6132d2565b600f60000154600f60010154131561301b57600f60020154600f600101541315612ec0576001600b6000600f600401546000191660001916815260200190815260200160002060050160006101000a81548160ff021916908315150217905550600b6000600f600401546000191660001916815260200190815260200160002060000154600e81905550613016565b600f60010154600f600201541315612f3d576001600b6000600f600501546000191660001916815260200190815260200160002060050160006101000a81548160ff021916908315150217905550600b6000600f600501546000191660001916815260200190815260200160002060000154600e81905550613015565b6001600b6000600f600401546000191660001916815260200190815260200160002060050160006101000a81548160ff0219169083151502179055506001600b6000600f600501546000191660001916815260200190815260200160002060050160006101000a81548160ff02191690831515021790555061300e600b6000600f600501546000191660001916815260200190815260200160002060000154600b6000600f60040154600019166000191681526020019081526020016000206000015461339f90919063ffffffff16565b600e819055505b5b6132d1565b600f60010154600f600201541315613098576001600b6000600f600501546000191660001916815260200190815260200160002060050160006101000a81548160ff021916908315150217905550600b6000600f600501546000191660001916815260200190815260200160002060000154600e819055506132d0565b600f60010154600f600201541215613186576001600b6000600f600401546000191660001916815260200190815260200160002060050160006101000a81548160ff0219169083151502179055506001600b6000600f600301546000191660001916815260200190815260200160002060050160006101000a81548160ff02191690831515021790555061317b600b6000600f600301546000191660001916815260200190815260200160002060000154600b6000600f60040154600019166000191681526020019081526020016000206000015461339f90919063ffffffff16565b600e819055506132cf565b6001600b6000600f600501546000191660001916815260200190815260200160002060050160006101000a81548160ff0219169083151502179055506001600b6000600f600401546000191660001916815260200190815260200160002060050160006101000a81548160ff0219169083151502179055506001600b6000600f600301546000191660001916815260200190815260200160002060050160006101000a81548160ff0219169083151502179055506132c8600b6000600f6005015460001916600019168152602001908152602001600020600001546132ba600b6000600f600301546000191660001916815260200190815260200160002060000154600b6000600f60040154600019166000191681526020019081526020016000206000015461339f90919063ffffffff16565b61339f90919063ffffffff16565b600e819055505b5b5b5b6001601560000160026101000a81548160ff02191690831515021790555050565b6132fb61450a565b600060208301905060408051908101604052808451815260200182815250915050919050565b61332961449d565b61333161449d565b6000836000015185600001510160405180591061334b5750595b9080825280601f01601f1916602001820160405250915060208201905061337b8186602001518760000151613f59565b6133948560000151820185602001518660000151613f59565b819250505092915050565b60008082840190508381101515156133b357fe5b8091505092915050565b6000806000809054906101000a900473ffffffffffffffffffffffffffffffffffffffff1673ffffffffffffffffffffffffffffffffffffffff16148061342d5750600061342b6000809054906101000a900473ffffffffffffffffffffffffffffffffffffffff16613f3d565b145b1561343e5761343c6000613f48565b505b6000809054906101000a900473ffffffffffffffffffffffffffffffffffffffff1673ffffffffffffffffffffffffffffffffffffffff166338cc48316000604051602001526040518163ffffffff167c0100000000000000000000000000000000000000000000000000000000028152600401602060405180830381600087803b15156134cb57600080fd5b6102c65a03f115156134dc57600080fd5b5050506040518051905073ffffffffffffffffffffffffffffffffffffffff16600160009054906101000a900473ffffffffffffffffffffffffffffffffffffffff1673ffffffffffffffffffffffffffffffffffffffff16141515613625576000809054906101000a900473ffffffffffffffffffffffffffffffffffffffff1673ffffffffffffffffffffffffffffffffffffffff166338cc48316000604051602001526040518163ffffffff167c0100000000000000000000000000000000000000000000000000000000028152600401602060405180830381600087803b15156135c957600080fd5b6102c65a03f115156135da57600080fd5b50505060405180519050600160006101000a81548173ffffffffffffffffffffffffffffffffffffffff021916908373ffffffffffffffffffffffffffffffffffffffff1602179055505b600160009054906101000a900473ffffffffffffffffffffffffffffffffffffffff1673ffffffffffffffffffffffffffffffffffffffff1663524f3889836000604051602001526040518263ffffffff167c01000000000000000000000000000000000000000000000000000000000281526004018080602001828103825283818151815260200191508051906020019080838360005b838110156136d85780820151818401526020810190506136bd565b50505050905090810190601f1680156137055780820380516001836020036101000a031916815260200191505b5092505050602060405180830381600087803b151561372357600080fd5b6102c65a03f1151561373457600080fd5b505050604051805190509050919050565b60008060008060009054906101000a900473ffffffffffffffffffffffffffffffffffffffff1673ffffffffffffffffffffffffffffffffffffffff1614806137b7575060006137b56000809054906101000a900473ffffffffffffffffffffffffffffffffffffffff16613f3d565b145b156137c8576137c66000613f48565b505b6000809054906101000a900473ffffffffffffffffffffffffffffffffffffffff1673ffffffffffffffffffffffffffffffffffffffff166338cc48316000604051602001526040518163ffffffff167c0100000000000000000000000000000000000000000000000000000000028152600401602060405180830381600087803b151561385557600080fd5b6102c65a03f1151561386657600080fd5b5050506040518051905073ffffffffffffffffffffffffffffffffffffffff16600160009054906101000a900473ffffffffffffffffffffffffffffffffffffffff1673ffffffffffffffffffffffffffffffffffffffff161415156139af576000809054906101000a900473ffffffffffffffffffffffffffffffffffffffff1673ffffffffffffffffffffffffffffffffffffffff166338cc48316000604051602001526040518163ffffffff167c0100000000000000000000000000000000000000000000000000000000028152600401602060405180830381600087803b151561395357600080fd5b6102c65a03f1151561396457600080fd5b50505060405180519050600160006101000a81548173ffffffffffffffffffffffffffffffffffffffff021916908373ffffffffffffffffffffffffffffffffffffffff1602179055505b600160009054906101000a900473ffffffffffffffffffffffffffffffffffffffff1673ffffffffffffffffffffffffffffffffffffffff1663524f3889856000604051602001526040518263ffffffff167c01000000000000000000000000000000000000000000000000000000000281526004018080602001828103825283818151815260200191508051906020019080838360005b83811015613a62578082015181840152602081019050613a47565b50505050905090810190601f168015613a8f5780820380516001836020036101000a031916815260200191505b5092505050602060405180830381600087803b1515613aad57600080fd5b6102c65a03f11515613abe57600080fd5b50505060405180519050905062030d403a02670de0b6b3a764000001811115613aed5760006001029150613c80565b600160009054906101000a900473ffffffffffffffffffffffffffffffffffffffff1673ffffffffffffffffffffffffffffffffffffffff1663adf59f9982600087876000604051602001526040518563ffffffff167c0100000000000000000000000000000000000000000000000000000000028152600401808481526020018060200180602001838103835285818151815260200191508051906020019080838360005b83811015613bae578082015181840152602081019050613b93565b50505050905090810190601f168015613bdb5780820380516001836020036101000a031916815260200191505b50838103825284818151815260200191508051906020019080838360005b83811015613c14578082015181840152602081019050613bf9565b50505050905090810190601f168015613c415780820380516001836020036101000a031916815260200191505b50955050505050506020604051808303818588803b1515613c6157600080fd5b6125ee5a03f11515613c7257600080fd5b505050506040518051905091505b5092915050565b83811015613ca2578082015181840152602081019050613c87565b50505050905090810190601f168015613ccf5780820380516001836020036101000a031916815260200191505b509350505050602060405180830381600087803b1515613cee57600080fd5b6102c65a03f11515613cff57600080fd5b505050604051805190509050823a02670de0b6b3a764000001811115613d2b5760006001029150613ec5565b600160009054906101000a900473ffffffffffffffffffffffffffffffffffffffff1673ffffffffffffffffffffffffffffffffffffffff1663c51be90f82888888886000604051602001526040518663ffffffff167c0100000000000000000000000000000000000000000000000000000000028152600401808581526020018060200180602001848152602001838103835286818151815260200191508051906020019080838360005b83811015613df2578082015181840152602081019050613dd7565b50505050905090810190601f168015613e1f5780820380516001836020036101000a031916815260200191505b50838103825285818151815260200191508051906020019080838360005b83811015613e58578082015181840152602081019050613e3d565b50505050905090810190601f168015613e855780820380516001836020036101000a031916815260200191505b5096505050505050506020604051808303818588803b1515613ea657600080fd5b6125ee5a03f11515613eb757600080fd5b505050506040518051905091505b50949350505050565b6000828211151515613edc57fe5b818303905092915050565b6000806000841415613efc5760009150613f1b565b8284029050828482811515613f0d57fe5b04141515613f1757fe5b8091505b5092915050565b6000808284811515613f3057fe5b0490508091505092915050565b6000813b9050919050565b6000613f52613fa4565b9050919050565b60005b602082101515613f815782518452602084019350602083019250602082039150613f5c565b6001826020036101000a0390508019835116818551168181178652505050505050565b600080613fc4731d3b2638a7cc9f2cb3d298a3da7a90b67e5506ed613f3d565b111561406557731d3b2638a7cc9f2cb3d298a3da7a90b67e5506ed6000806101000a81548173ffffffffffffffffffffffffffffffffffffffff021916908373ffffffffffffffffffffffffffffffffffffffff16021790555061405c6040805190810160405280600b81526020017f6574685f6d61696e6e6574000000000000000000000000000000000000000000815250614433565b60019050614430565b600061408473c03a2615d5efaf5f49f60b7bb6583eaec212fdf1613f3d565b11156141255773c03a2615d5efaf5f49f60b7bb6583eaec212fdf16000806101000a81548173ffffffffffffffffffffffffffffffffffffffff021916908373ffffffffffffffffffffffffffffffffffffffff16021790555061411c6040805190810160405280600c81526020017f6574685f726f707374656e330000000000000000000000000000000000000000815250614433565b60019050614430565b600061414473b7a07bcf2ba2f2703b24c0691b5278999c59ac7e613f3d565b11156141e55773b7a07bcf2ba2f2703b24c0691b5278999c59ac7e6000806101000a81548173ffffffffffffffffffffffffffffffffffffffff021916908373ffffffffffffffffffffffffffffffffffffffff1602179055506141dc6040805190810160405280600981526020017f6574685f6b6f76616e0000000000000000000000000000000000000000000000815250614433565b60019050614430565b600061420473146500cfd35b22e4a392fe0adc06de1a1368ed48613f3d565b11156142a55773146500cfd35b22e4a392fe0adc06de1a1368ed486000806101000a81548173ffffffffffffffffffffffffffffffffffffffff021916908373ffffffffffffffffffffffffffffffffffffffff16021790555061429c6040805190810160405280600b81526020017f6574685f72696e6b656279000000000000000000000000000000000000000000815250614433565b60019050614430565b60006142c4736f485c8bf6fc43ea212e93bbf8ce046c7f1cb475613f3d565b111561432757736f485c8bf6fc43ea212e93bbf8ce046c7f1cb4756000806101000a81548173ffffffffffffffffffffffffffffffffffffffff021916908373ffffffffffffffffffffffffffffffffffffffff16021790555060019050614430565b60006143467320e12a1f859b3feae5fb2a0a32c18f5a65555bbf613f3d565b11156143a9577320e12a1f859b3feae5fb2a0a32c18f5a65555bbf6000806101000a81548173ffffffffffffffffffffffffffffffffffffffff021916908373ffffffffffffffffffffffffffffffffffffffff16021790555060019050614430565b60006143c87351efaf4c8b3c9afbd5ab9f4bbc82784ab6ef8faa613f3d565b111561442b577351efaf4c8b3c9afbd5ab9f4bbc82784ab6ef8faa6000806101000a81548173ffffffffffffffffffffffffffffffffffffffff021916908373ffffffffffffffffffffffffffffffffffffffff16021790555060019050614430565b600090505b90565b8060029080519060200190614449929190614524565b5050565b602060405190810160405280600081525090565b602060405190810160405280600081525090565b602060405190810160405280600081525090565b602060405190810160405280600081525090565b602060405190810160405280600081525090565b60606040519081016040528060008019168152602001600081526020016000151581525090565b8154818355818115116145055760030281600302836000526020600020918201910161450491906145a4565b5b505050565b604080519081016040528060008152602001600081525090565b828054600181600116156101000203166002900490600052602060002090601f016020900481019282601f1061456557805160ff1916838001178555614593565b82800160010185558215614593579182015b82811115614592578251825591602001919060010190614577565b5b5090506145a091906145e7565b5090565b6145e491905b808211156145e05760008082016000905560018201600090556002820160006101000a81549060ff0219169055506003016145aa565b5090565b90565b61460991905b808211156146055760008160009055506001016145ed565b5090565b90565b60008060009054906101000a900473ffffffffffffffffffffffffffffffffffffffff1673ffffffffffffffffffffffffffffffffffffffff16148061467b575060006146796000809054906101000a900473ffffffffffffffffffffffffffffffffffffffff16613f3d565b145b1561468c5761468a6000613f48565b505b6000809054906101000a900473ffffffffffffffffffffffffffffffffffffffff1673ffffffffffffffffffffffffffffffffffffffff166338cc48316000604051602001526040518163ffffffff167c0100000000000000000000000000000000000000000000000000000000028152600401602060405180830381600087803b151561471957600080fd5b6102c65a03f1151561472a57600080fd5b5050506040518051905073ffffffffffffffffffffffffffffffffffffffff16600160009054906101000a900473ffffffffffffffffffffffffffffffffffffffff1673ffffffffffffffffffffffffffffffffffffffff16141515614873576000809054906101000a900473ffffffffffffffffffffffffffffffffffffffff1673ffffffffffffffffffffffffffffffffffffffff166338cc48316000604051602001526040518163ffffffff167c0100000000000000000000000000000000000000000000000000000000028152600401602060405180830381600087803b151561481757600080fd5b6102c65a03f1151561482857600080fd5b50505060405180519050600160006101000a81548173ffffffffffffffffffffffffffffffffffffffff021916908373ffffffffffffffffffffffffffffffffffffffff1602179055505b600160009054906101000a900473ffffffffffffffffffffffffffffffffffffffff1673ffffffffffffffffffffffffffffffffffffffff1663688dcfd7826040518263ffffffff167c010000000000000000000000000000000000000000000000000000000002815260040180827effffffffffffffffffffffffffffffffffffffffffffffffffffffffffffff19167effffffffffffffffffffffffffffffffffffffffffffffffffffffffffffff19168152602001915050600060405180830381600087803b151561494757600080fd5b6102c65a03f1151561495857600080fd5b50505050565b60008060009054906101000a900473ffffffffffffffffffffffffffffffffffffffff1673ffffffffffffffffffffffffffffffffffffffff1614806149cd575060006149cb6000809054906101000a900473ffffffffffffffffffffffffffffffffffffffff16613f3d565b145b156149de576149dc6000613f48565b505b6000809054906101000a900473ffffffffffffffffffffffffffffffffffffffff1673ffffffffffffffffffffffffffffffffffffffff166338cc48316000604051602001526040518163ffffffff167c0100000000000000000000000000000000000000000000000000000000028152600401602060405180830381600087803b1515614a6b57600080fd5b6102c65a03f11515614a7c57600080fd5b5050506040518051905073ffffffffffffffffffffffffffffffffffffffff16600160009054906101000a900473ffffffffffffffffffffffffffffffffffffffff1673ffffffffffffffffffffffffffffffffffffffff16141515614bc5576000809054906101000a900473ffffffffffffffffffffffffffffffffffffffff1673ffffffffffffffffffffffffffffffffffffffff166338cc48316000604051602001526040518163ffffffff167c0100000000000000000000000000000000000000000000000000000000028152600401602060405180830381600087803b1515614b6957600080fd5b6102c65a03f11515614b7a57600080fd5b50505060405180519050600160006101000a81548173ffffffffffffffffffffffffffffffffffffffff021916908373ffffffffffffffffffffffffffffffffffffffff1602179055505b600160009054906101000a900473ffffffffffffffffffffffffffffffffffffffff1673ffffffffffffffffffffffffffffffffffffffff1663ca6ad1e4826040518263ffffffff167c010000000000000000000000000000000000000000000000000000000002815260040180828152602001915050600060405180830381600087803b1515614c5557600080fd5b6102c65a03f11515614c6657600080fd5b505050505600a165627a7a72305820c36e901368f5330b2d45378605668ace30ced191d7bfcc722f59b832af24de340029a165627a7a72305820be90c77690db7d6ec7de70f8f2ccaaa1e6482e9d5b3c845558fcf1986d1582820029",
  "source": "pragma solidity ^0.4.18;\r\n\r\nimport { StocksBetting as Betting } from \"./StocksBetting.sol\";\r\n \r\ncontract StocksBettingController {\r\n    address owner;\r\n    bool paused;\r\n    Betting betting;\r\n\r\n    mapping (address => uint256) bettingIndex;\r\n    event BettingDeployed(address _address, address _owner, uint256 _time);\r\n\r\n    modifier onlyOwmner {\r\n        require(msg.sender == owner);\r\n        _;\r\n    }\r\n    \r\n    modifier isNotPaused {\r\n        require(!paused);\r\n        _;\r\n    }\r\n    \r\n    function StocksBettingController() public payable {\r\n        owner = msg.sender;\r\n    }\r\n    \r\n    function createBetting() public isNotPaused {\r\n        betting = (new Betting).value(0.1 ether)();\r\n        bettingIndex[betting] = now;\r\n        // neet to setup duration\r\n        assert(betting.setupBetting(\"2018-02-07\", \"2018-02-08 15:01:00\", 960, 60));\r\n        BettingDeployed(address(betting), betting.owner(), now);\r\n    }\r\n    \r\n    function setPause(bool _status) public onlyOwmner {\r\n        paused = _status;\r\n    }\r\n}",
  "sourcePath": "D:\\Maining\\!_ICO\\stocks.bet\\contracts\\contracts\\StocksBettingController.sol",
  "compiler": {
    "name": "solc",
    "version": "0.4.18+commit.9cf6e910.Emscripten.clang"
  },
  "schemaVersion": "1.0.1",
  "updatedAt": "2018-02-10T13:06:28.338Z"
}