{
  "contractName": "StocksBetting",
  "abi": [
    {
      "constant": true,
      "inputs": [
        {
          "name": "",
          "type": "bytes32"
        }
      ],
      "name": "stocksIndex",
      "outputs": [
        {
          "name": "totalPool",
          "type": "uint256"
        },
        {
          "name": "priceStart",
          "type": "uint256"
        },
        {
          "name": "priceEnd",
          "type": "uint256"
        },
        {
          "name": "betsCount",
          "type": "uint256"
        },
        {
          "name": "canceledBetsCount",
          "type": "uint256"
        },
        {
          "name": "isWinner",
          "type": "bool"
        }
      ],
      "payable": false,
      "stateMutability": "view",
      "type": "function"
    },
    {
      "constant": false,
      "inputs": [
        {
          "name": "myid",
          "type": "bytes32"
        },
        {
          "name": "result",
          "type": "string"
        }
      ],
      "name": "__callback",
      "outputs": [],
      "payable": false,
      "stateMutability": "nonpayable",
      "type": "function"
    },
    {
      "constant": true,
      "inputs": [
        {
          "name": "",
          "type": "address"
        }
      ],
      "name": "bettorsIndex",
      "outputs": [
        {
          "name": "betsCount",
          "type": "uint256"
        },
        {
          "name": "canceledBetsCount",
          "type": "uint256"
        },
        {
          "name": "isRewarded",
          "type": "bool"
        }
      ],
      "payable": false,
      "stateMutability": "view",
      "type": "function"
    },
    {
      "constant": true,
      "inputs": [],
      "name": "rewardCheck",
      "outputs": [
        {
          "name": "",
          "type": "uint256"
        }
      ],
      "payable": false,
      "stateMutability": "view",
      "type": "function"
    },
    {
      "constant": true,
      "inputs": [],
      "name": "actionStatus",
      "outputs": [
        {
          "name": "isOpen",
          "type": "bool"
        },
        {
          "name": "isStart",
          "type": "bool"
        },
        {
          "name": "isEnd",
          "type": "bool"
        },
        {
          "name": "isVoided",
          "type": "bool"
        },
        {
          "name": "duration",
          "type": "uint256"
        },
        {
          "name": "durationLockBetReceiving",
          "type": "uint256"
        },
        {
          "name": "durationBettingResult",
          "type": "uint256"
        },
        {
          "name": "momentStart",
          "type": "uint256"
        },
        {
          "name": "momentCloseValue",
          "type": "string"
        },
        {
          "name": "momentOpen1MValue",
          "type": "string"
        }
      ],
      "payable": false,
      "stateMutability": "view",
      "type": "function"
    },
    {
      "constant": false,
      "inputs": [
        {
          "name": "myid",
          "type": "bytes32"
        },
        {
          "name": "result",
          "type": "string"
        },
        {
          "name": "proof",
          "type": "bytes"
        }
      ],
      "name": "__callback",
      "outputs": [],
      "payable": false,
      "stateMutability": "nonpayable",
      "type": "function"
    },
    {
      "constant": true,
      "inputs": [],
      "name": "queryProp",
      "outputs": [
        {
          "name": "",
          "type": "uint256"
        }
      ],
      "payable": false,
      "stateMutability": "view",
      "type": "function"
    },
    {
      "constant": true,
      "inputs": [],
      "name": "version",
      "outputs": [
        {
          "name": "",
          "type": "string"
        }
      ],
      "payable": false,
      "stateMutability": "view",
      "type": "function"
    },
    {
      "constant": true,
      "inputs": [],
      "name": "getBettorInfo",
      "outputs": [
        {
          "name": "",
          "type": "uint256"
        },
        {
          "name": "",
          "type": "bytes32[]"
        },
        {
          "name": "",
          "type": "uint256[]"
        },
        {
          "name": "",
          "type": "bool[]"
        }
      ],
      "payable": false,
      "stateMutability": "view",
      "type": "function"
    },
    {
      "constant": false,
      "inputs": [],
      "name": "refundKill",
      "outputs": [],
      "payable": false,
      "stateMutability": "nonpayable",
      "type": "function"
    },
    {
      "constant": true,
      "inputs": [
        {
          "name": "index",
          "type": "bytes32"
        }
      ],
      "name": "getStockInfo",
      "outputs": [
        {
          "name": "",
          "type": "uint256"
        },
        {
          "name": "",
          "type": "uint256"
        },
        {
          "name": "",
          "type": "uint256"
        },
        {
          "name": "",
          "type": "uint256"
        },
        {
          "name": "",
          "type": "uint256"
        }
      ],
      "payable": false,
      "stateMutability": "view",
      "type": "function"
    },
    {
      "constant": false,
      "inputs": [],
      "name": "rewardClaim",
      "outputs": [],
      "payable": false,
      "stateMutability": "nonpayable",
      "type": "function"
    },
    {
      "constant": true,
      "inputs": [],
      "name": "totalReward",
      "outputs": [
        {
          "name": "",
          "type": "uint256"
        }
      ],
      "payable": false,
      "stateMutability": "view",
      "type": "function"
    },
    {
      "constant": true,
      "inputs": [
        {
          "name": "s",
          "type": "string"
        }
      ],
      "name": "stringToUintNormalize",
      "outputs": [
        {
          "name": "result",
          "type": "uint256"
        }
      ],
      "payable": false,
      "stateMutability": "view",
      "type": "function"
    },
    {
      "constant": true,
      "inputs": [],
      "name": "owner",
      "outputs": [
        {
          "name": "",
          "type": "address"
        }
      ],
      "payable": false,
      "stateMutability": "view",
      "type": "function"
    },
    {
      "constant": false,
      "inputs": [
        {
          "name": "stock",
          "type": "bytes32"
        }
      ],
      "name": "sendBet",
      "outputs": [],
      "payable": true,
      "stateMutability": "payable",
      "type": "function"
    },
    {
      "constant": true,
      "inputs": [],
      "name": "stocks",
      "outputs": [
        {
          "name": "oddsAAPL",
          "type": "int256"
        },
        {
          "name": "oddsMSFT",
          "type": "int256"
        },
        {
          "name": "oddsGOOG",
          "type": "int256"
        },
        {
          "name": "AAPL",
          "type": "bytes32"
        },
        {
          "name": "MSFT",
          "type": "bytes32"
        },
        {
          "name": "GOOG",
          "type": "bytes32"
        }
      ],
      "payable": false,
      "stateMutability": "view",
      "type": "function"
    },
    {
      "constant": false,
      "inputs": [],
      "name": "recovery",
      "outputs": [],
      "payable": false,
      "stateMutability": "nonpayable",
      "type": "function"
    },
    {
      "constant": false,
      "inputs": [
        {
          "name": "momentCloseValue",
          "type": "string"
        },
        {
          "name": "momentOpen1MValue",
          "type": "string"
        },
        {
          "name": "durationLockBetReceiving",
          "type": "uint256"
        },
        {
          "name": "durationBettingResult",
          "type": "uint256"
        }
      ],
      "name": "setupBetting",
      "outputs": [
        {
          "name": "",
          "type": "bool"
        }
      ],
      "payable": true,
      "stateMutability": "payable",
      "type": "function"
    },
    {
      "constant": true,
      "inputs": [],
      "name": "totalPool",
      "outputs": [
        {
          "name": "",
          "type": "uint256"
        }
      ],
      "payable": false,
      "stateMutability": "view",
      "type": "function"
    },
    {
      "constant": false,
      "inputs": [
        {
          "name": "stock",
          "type": "bytes32"
        }
      ],
      "name": "cancelAllBet",
      "outputs": [],
      "payable": true,
      "stateMutability": "payable",
      "type": "function"
    },
    {
      "constant": true,
      "inputs": [],
      "name": "getRewardTotal",
      "outputs": [
        {
          "name": "",
          "type": "uint256"
        }
      ],
      "payable": false,
      "stateMutability": "view",
      "type": "function"
    },
    {
      "inputs": [],
      "payable": true,
      "stateMutability": "payable",
      "type": "constructor"
    },
    {
      "anonymous": false,
      "inputs": [
        {
          "indexed": false,
          "name": "description",
          "type": "string"
        }
      ],
      "name": "newOraclizeQuery",
      "type": "event"
    },
    {
      "anonymous": false,
      "inputs": [
        {
          "indexed": false,
          "name": "price",
          "type": "uint256"
        }
      ],
      "name": "newPriceTicker",
      "type": "event"
    },
    {
      "anonymous": false,
      "inputs": [
        {
          "indexed": false,
          "name": "from",
          "type": "address"
        },
        {
          "indexed": false,
          "name": "val",
          "type": "uint256"
        }
      ],
      "name": "Deposit",
      "type": "event"
    },
    {
      "anonymous": false,
      "inputs": [
        {
          "indexed": false,
          "name": "to",
          "type": "address"
        },
        {
          "indexed": false,
          "name": "val",
          "type": "uint256"
        }
      ],
      "name": "Withdraw",
      "type": "event"
    }
  ],
  "bytecode": "0x6060604052600360085560006009556200007560017f01000000000000000000000000000000000000000000000000000000000000000260107f010000000000000000000000000000000000000000000000000000000000000002176200014d6401000000000262004c9d176401000000009004565b33600560006101000a81548173ffffffffffffffffffffffffffffffffffffffff021916908373ffffffffffffffffffffffffffffffffffffffff160217905550346009819055507f4141504c00000000000000000000000000000000000000000000000000000000600f60030181600019169055507f4d53465400000000000000000000000000000000000000000000000000000000600f60040181600019169055507f474f4f4700000000000000000000000000000000000000000000000000000000600f600501816000191690555062000b60565b60008060009054906101000a900473ffffffffffffffffffffffffffffffffffffffff1673ffffffffffffffffffffffffffffffffffffffff161480620001d357506000620001d16000809054906101000a900473ffffffffffffffffffffffffffffffffffffffff16620004d46401000000000262004522176401000000009004565b145b15620001fb57620001f96000620004df640100000000026200452d176401000000009004565b505b6000809054906101000a900473ffffffffffffffffffffffffffffffffffffffff1673ffffffffffffffffffffffffffffffffffffffff166338cc48316000604051602001526040518163ffffffff167c0100000000000000000000000000000000000000000000000000000000028152600401602060405180830381600087803b15156200028957600080fd5b6102c65a03f115156200029b57600080fd5b5050506040518051905073ffffffffffffffffffffffffffffffffffffffff16600160009054906101000a900473ffffffffffffffffffffffffffffffffffffffff1673ffffffffffffffffffffffffffffffffffffffff16141515620003e7576000809054906101000a900473ffffffffffffffffffffffffffffffffffffffff1673ffffffffffffffffffffffffffffffffffffffff166338cc48316000604051602001526040518163ffffffff167c0100000000000000000000000000000000000000000000000000000000028152600401602060405180830381600087803b15156200038a57600080fd5b6102c65a03f115156200039c57600080fd5b50505060405180519050600160006101000a81548173ffffffffffffffffffffffffffffffffffffffff021916908373ffffffffffffffffffffffffffffffffffffffff1602179055505b600160009054906101000a900473ffffffffffffffffffffffffffffffffffffffff1673ffffffffffffffffffffffffffffffffffffffff1663688dcfd7826040518263ffffffff167c010000000000000000000000000000000000000000000000000000000002815260040180827effffffffffffffffffffffffffffffffffffffffffffffffffffffffffffff19167effffffffffffffffffffffffffffffffffffffffffffffffffffffffffffff19168152602001915050600060405180830381600087803b1515620004bc57600080fd5b6102c65a03f11515620004ce57600080fd5b50505050565b6000813b9050919050565b6000620004ff6200050664010000000002620045ea176401000000009004565b9050919050565b6000806200053c731d3b2638a7cc9f2cb3d298a3da7a90b67e5506ed620004d46401000000000262004522176401000000009004565b1115620005f557731d3b2638a7cc9f2cb3d298a3da7a90b67e5506ed6000806101000a81548173ffffffffffffffffffffffffffffffffffffffff021916908373ffffffffffffffffffffffffffffffffffffffff160217905550620005eb6040805190810160405280600b81526020017f6574685f6d61696e6e657400000000000000000000000000000000000000000081525062000a956401000000000262004ac4176401000000009004565b6001905062000a92565b60006200062a73c03a2615d5efaf5f49f60b7bb6583eaec212fdf1620004d46401000000000262004522176401000000009004565b1115620006e35773c03a2615d5efaf5f49f60b7bb6583eaec212fdf16000806101000a81548173ffffffffffffffffffffffffffffffffffffffff021916908373ffffffffffffffffffffffffffffffffffffffff160217905550620006d96040805190810160405280600c81526020017f6574685f726f707374656e33000000000000000000000000000000000000000081525062000a956401000000000262004ac4176401000000009004565b6001905062000a92565b60006200071873b7a07bcf2ba2f2703b24c0691b5278999c59ac7e620004d46401000000000262004522176401000000009004565b1115620007d15773b7a07bcf2ba2f2703b24c0691b5278999c59ac7e6000806101000a81548173ffffffffffffffffffffffffffffffffffffffff021916908373ffffffffffffffffffffffffffffffffffffffff160217905550620007c76040805190810160405280600981526020017f6574685f6b6f76616e000000000000000000000000000000000000000000000081525062000a956401000000000262004ac4176401000000009004565b6001905062000a92565b60006200080673146500cfd35b22e4a392fe0adc06de1a1368ed48620004d46401000000000262004522176401000000009004565b1115620008bf5773146500cfd35b22e4a392fe0adc06de1a1368ed486000806101000a81548173ffffffffffffffffffffffffffffffffffffffff021916908373ffffffffffffffffffffffffffffffffffffffff160217905550620008b56040805190810160405280600b81526020017f6574685f72696e6b65627900000000000000000000000000000000000000000081525062000a956401000000000262004ac4176401000000009004565b6001905062000a92565b6000620008f4736f485c8bf6fc43ea212e93bbf8ce046c7f1cb475620004d46401000000000262004522176401000000009004565b11156200095957736f485c8bf6fc43ea212e93bbf8ce046c7f1cb4756000806101000a81548173ffffffffffffffffffffffffffffffffffffffff021916908373ffffffffffffffffffffffffffffffffffffffff1602179055506001905062000a92565b60006200098e7320e12a1f859b3feae5fb2a0a32c18f5a65555bbf620004d46401000000000262004522176401000000009004565b1115620009f3577320e12a1f859b3feae5fb2a0a32c18f5a65555bbf6000806101000a81548173ffffffffffffffffffffffffffffffffffffffff021916908373ffffffffffffffffffffffffffffffffffffffff1602179055506001905062000a92565b600062000a287351efaf4c8b3c9afbd5ab9f4bbc82784ab6ef8faa620004d46401000000000262004522176401000000009004565b111562000a8d577351efaf4c8b3c9afbd5ab9f4bbc82784ab6ef8faa6000806101000a81548173ffffffffffffffffffffffffffffffffffffffff021916908373ffffffffffffffffffffffffffffffffffffffff1602179055506001905062000a92565b600090505b90565b806002908051906020019062000aad92919062000ab1565b5050565b828054600181600116156101000203166002900490600052602060002090601f016020900481019282601f1062000af457805160ff191683800117855562000b25565b8280016001018555821562000b25579182015b8281111562000b2457825182559160200191906001019062000b07565b5b50905062000b34919062000b38565b5090565b62000b5d91905b8082111562000b5957600081600090555060010162000b3f565b5090565b90565b61501b8062000b706000396000f300606060405260043610610128576000357c0100000000000000000000000000000000000000000000000000000000900463ffffffff168063090aaa871461012d57806327dc297e1461018f57806328acd911146101f95780632a8ec72a146102585780633571b4531461028157806338bbfa50146103fd5780634898471a146104aa57806354fd4d50146104d357806355bf4785146105615780635cccf41f146106625780635f7192ff146106775780636409f921146106ce578063750142e6146106e357806385ba00521461070c5780638da5cb5b1461077d578063b3eeb33e146107d2578063dcc37192146107ee578063ddceafa914610852578063e53e382914610867578063ecfb49a314610926578063fb8f6ea01461094f578063fc1452101461096b575b600080fd5b341561013857600080fd5b610152600480803560001916906020019091905050610994565b6040518087815260200186815260200185815260200184815260200183815260200182151515158152602001965050505050505060405180910390f35b341561019a57600080fd5b6101f760048080356000191690602001909190803590602001908201803590602001908080601f016020809104026020016040519081016040528093929190818152602001838380828437820191505050505050919050506109dd565b005b341561020457600080fd5b610230600480803573ffffffffffffffffffffffffffffffffffffffff16906020019091905050610a0f565b6040518084815260200183815260200182151515158152602001935050505060405180910390f35b341561026357600080fd5b61026b610a46565b6040518082815260200191505060405180910390f35b341561028c57600080fd5b610294610ad0565b604051808b1515151581526020018a151515158152602001891515151581526020018815151515815260200187815260200186815260200185815260200184815260200180602001806020018381038352858181546001816001161561010002031660029004815260200191508054600181600116156101000203166002900480156103615780601f1061033657610100808354040283529160200191610361565b820191906000526020600020905b81548152906001019060200180831161034457829003601f168201915b50508381038252848181546001816001161561010002031660029004815260200191508054600181600116156101000203166002900480156103e45780601f106103b9576101008083540402835291602001916103e4565b820191906000526020600020905b8154815290600101906020018083116103c757829003601f168201915b50509c5050505050505050505050505060405180910390f35b341561040857600080fd5b6104a860048080356000191690602001909190803590602001908201803590602001908080601f0160208091040260200160405190810160405280939291908181526020018383808284378201915050505050509190803590602001908201803590602001908080601f01602080910402602001604051908101604052809392919081815260200183838082843782019150505050505091905050610b44565b005b34156104b557600080fd5b6104bd610c9e565b6040518082815260200191505060405180910390f35b34156104de57600080fd5b6104e6610ca4565b6040518080602001828103825283818151815260200191508051906020019080838360005b8381101561052657808201518184015260208101905061050b565b50505050905090810190601f1680156105535780820380516001836020036101000a031916815260200191505b509250505060405180910390f35b341561056c57600080fd5b610574610cdd565b60405180858152602001806020018060200180602001848103845287818151815260200191508051906020019060200280838360005b838110156105c55780820151818401526020810190506105aa565b50505050905001848103835286818151815260200191508051906020019060200280838360005b838110156106075780820151818401526020810190506105ec565b50505050905001848103825285818151815260200191508051906020019060200280838360005b8381101561064957808201518184015260208101905061062e565b5050505090500197505050505050505060405180910390f35b341561066d57600080fd5b610675610eab565b005b341561068257600080fd5b61069c600480803560001916906020019091905050610fcf565b604051808681526020018581526020018481526020018381526020018281526020019550505050505060405180910390f35b34156106d957600080fd5b6106e1611085565b005b34156106ee57600080fd5b6106f661123a565b6040518082815260200191505060405180910390f35b341561071757600080fd5b610767600480803590602001908201803590602001908080601f01602080910402602001604051908101604052809392919081815260200183838082843782019150505050505091905050611240565b6040518082815260200191505060405180910390f35b341561078857600080fd5b610790611400565b604051808273ffffffffffffffffffffffffffffffffffffffff1673ffffffffffffffffffffffffffffffffffffffff16815260200191505060405180910390f35b6107ec600480803560001916906020019091905050611426565b005b34156107f957600080fd5b6108016116c8565b60405180878152602001868152602001858152602001846000191660001916815260200183600019166000191681526020018260001916600019168152602001965050505050505060405180910390f35b341561085d57600080fd5b6108656116f2565b005b61090c600480803590602001908201803590602001908080601f0160208091040260200160405190810160405280939291908181526020018383808284378201915050505050509190803590602001908201803590602001908080601f016020809104026020016040519081016040528093929190818152602001838380828437820191505050505050919080359060200190919080359060200190919050506117e0565b604051808215151515815260200191505060405180910390f35b341561093157600080fd5b610939611fa8565b6040518082815260200191505060405180910390f35b610969600480803560001916906020019091905050611fae565b005b341561097657600080fd5b61097e6123b0565b6040518082815260200191505060405180910390f35b600b6020528060005260406000206000915090508060000154908060010154908060020154908060030154908060040154908060050160009054906101000a900460ff16905086565b610a0b828260006040518059106109f15750595b9080825280601f01601f1916602001820160405250610b44565b5050565b600c6020528060005260406000206000915090508060000154908060010154908060020160009054906101000a900460ff16905083565b6000601560000160029054906101000a900460ff161515610a6657600080fd5b600c60003373ffffffffffffffffffffffffffffffffffffffff1673ffffffffffffffffffffffffffffffffffffffff16815260200190815260200160002060020160009054906101000a900460ff16151515610ac257600080fd5b610acb33612445565b905090565b60158060000160009054906101000a900460ff16908060000160019054906101000a900460ff16908060000160029054906101000a900460ff16908060000160039054906101000a900460ff169080600101549080600201549080600301549080600401549080600501908060060190508a565b610b4c61266b565b73ffffffffffffffffffffffffffffffffffffffff163373ffffffffffffffffffffffffffffffffffffffff16141515610b8557600080fd5b600a6000846000191660001916815260200190815260200160002054600681600019169055507f436865636b53657276696365000000000000000000000000000000000000000060001916600654600019161415610c00576001601560000160016101000a81548160ff021916908315150217905550610c99565b601560000160019054906101000a900460ff1615610c6a57610c2182611240565b600b6000600654600019166000191681526020019081526020016000206002018190555060016008540360088190555060006008541415610c6557610c64612981565b5b610c98565b610c7382611240565b600b600060065460001916600019168152602001908152602001600020600101819055505b5b505050565b60095481565b6040805190810160405280600581526020017f302e302e3200000000000000000000000000000000000000000000000000000081525081565b6000610ce7614ade565b610cef614af2565b610cf7614b06565b6000610d01614ade565b610d09614af2565b610d11614b06565b600080600c60003373ffffffffffffffffffffffffffffffffffffffff1673ffffffffffffffffffffffffffffffffffffffff16815260200190815260200160002095508560030180549050604051805910610d6a5750595b908082528060200260200182016040525094508560030180549050604051805910610d925750595b908082528060200260200182016040525093508560030180549050604051805910610dba5750595b90808252806020026020018201604052509250600091505b8560030180549050821015610e8f578560030182815481101515610df257fe5b9060005260206000209060030201905080600001548583815181101515610e1557fe5b90602001906020020190600019169081600019168152505080600101548483815181101515610e4057fe5b90602001906020020181815250508060020160009054906101000a900460ff168383815181101515610e6e57fe5b90602001906020020190151590811515815250508180600101925050610dd2565b8560000154858585995099509950995050505050505090919293565b3373ffffffffffffffffffffffffffffffffffffffff16600560009054906101000a900473ffffffffffffffffffffffffffffffffffffffff1673ffffffffffffffffffffffffffffffffffffffff16141515610f0757600080fd5b6015600101546015600401540142111515610f2157600080fd5b601560000160009054906101000a900460ff168015610f505750601560000160019054906101000a900460ff16155b80610f865750601560000160019054906101000a900460ff168015610f855750601560000160029054906101000a900460ff16155b5b1515610f9157600080fd5b6001601560000160036101000a81548160ff0219169083151502179055506001601560000160026101000a81548160ff021916908315150217905550565b6000806000806000600b6000876000191660001916815260200190815260200160002060000154600b6000886000191660001916815260200190815260200160002060010154600b6000896000191660001916815260200190815260200160002060020154600b60008a6000191660001916815260200190815260200160002060030154600b60008b60001916600019168152602001908152602001600020600401549450945094509450945091939590929450565b6000601560000160029054906101000a900460ff1615156110a557600080fd5b600c60003373ffffffffffffffffffffffffffffffffffffffff1673ffffffffffffffffffffffffffffffffffffffff16815260200190815260200160002060020160009054906101000a900460ff1615151561110157600080fd5b61110a33612445565b9050803073ffffffffffffffffffffffffffffffffffffffff163111151561113157600080fd5b6001600c60003373ffffffffffffffffffffffffffffffffffffffff1673ffffffffffffffffffffffffffffffffffffffff16815260200190815260200160002060020160006101000a81548160ff0219169083151502179055503373ffffffffffffffffffffffffffffffffffffffff166108fc829081150290604051600060405180830381858888f1935050505015156111cc57600080fd5b7f884edad9ce6fa2440d8a54cc123490eb96d2768479d49ff9c7366125a94243643382604051808373ffffffffffffffffffffffffffffffffffffffff1673ffffffffffffffffffffffffffffffffffffffff1681526020018281526020019250505060405180910390a150565b600d5481565b600080600061124d614b1a565b600080600294506000935086925060009550600091505b82518210156113d957600115158415151415611281576001850394505b602e838381518110151561129157fe5b9060200101517f010000000000000000000000000000000000000000000000000000000000000090047f0100000000000000000000000000000000000000000000000000000000000000027f01000000000000000000000000000000000000000000000000000000000000009004141561130a57600193505b828281518110151561131857fe5b9060200101517f010000000000000000000000000000000000000000000000000000000000000090047f0100000000000000000000000000000000000000000000000000000000000000027f0100000000000000000000000000000000000000000000000000000000000000900490506030811015801561139a575060398111155b156113ab5760308103600a87020195505b600115158415151480156113bf5750600085145b156113cc578595506113f6565b8180600101925050611264565b5b6000851415156113f557600a860295506001850394506113da565b5b5050505050919050565b600560009054906101000a900473ffffffffffffffffffffffffffffffffffffffff1681565b61142e614b2e565b601560000160009054906101000a900460ff16151561144c57600080fd5b601560000160019054906101000a900460ff1615151561146b57600080fd5b67016345785d8a0000341015801561148b5750670de0b6b3a76400003411155b151561149657600080fd5b348160200181815250508181600001906000191690816000191681525050600c60003373ffffffffffffffffffffffffffffffffffffffff1673ffffffffffffffffffffffffffffffffffffffff16815260200190815260200160002060030180548060010182816115089190614b55565b91600052602060002090600302016000839091909150600082015181600001906000191690556020820151816001015560408201518160020160006101000a81548160ff0219169083151502179055505050506115b16001600c60003373ffffffffffffffffffffffffffffffffffffffff1673ffffffffffffffffffffffffffffffffffffffff168152602001908152602001600020600001546132d190919063ffffffff16565b506115e334600b60008560001916600019168152602001908152602001600020600001546132d190919063ffffffff16565b600b60008460001916600019168152602001908152602001600020600001819055506116376001600b60008560001916600019168152602001908152602001600020600301546132d190919063ffffffff16565b600b60008460001916600019168152602001908152602001600020600301819055507fe1fffcc4923d04b559f4d29a8bfc6cda04eb5b0d3c460751c2402c5c5cc9109c3334604051808373ffffffffffffffffffffffffffffffffffffffff1673ffffffffffffffffffffffffffffffffffffffff1681526020018281526020019250505060405180910390a15050565b600f8060000154908060010154908060020154908060030154908060040154908060050154905086565b3373ffffffffffffffffffffffffffffffffffffffff16600560009054906101000a900473ffffffffffffffffffffffffffffffffffffffff1673ffffffffffffffffffffffffffffffffffffffff1614151561174e57600080fd5b62278d0060156001015460156004015401014211151561176d57600080fd5b601560000160039054906101000a900460ff168061179a5750601560000160029054906101000a900460ff165b15156117a557600080fd5b600560009054906101000a900473ffffffffffffffffffffffffffffffffffffffff1673ffffffffffffffffffffffffffffffffffffffff16ff5b6000803373ffffffffffffffffffffffffffffffffffffffff16600560009054906101000a900473ffffffffffffffffffffffffffffffffffffffff1673ffffffffffffffffffffffffffffffffffffffff1614151561183f57600080fd5b601560000160009054906101000a900460ff1615151561185e57600080fd5b3073ffffffffffffffffffffffffffffffffffffffff16316118b46040805190810160405280600381526020017f55524c00000000000000000000000000000000000000000000000000000000008152506132ef565b1115611977577f46cb989ef9cef13e930e3b7f286225a086e716a90d63e0b7da85d310a9db0c9a60405180806020018281038252604b8152602001807f4f7261636c697a6520717565727920776173204e4f542073656e742c20706c6581526020017f6173652061646420736f6d652045544820746f20636f76657220666f7220746881526020017f652071756572792066656500000000000000000000000000000000000000000081525060600191505060405180910390a160009150611f9f565b42601560040181905550856015600501908051906020019061199a929190614b87565b5084601560060190805190602001906119b4929190614b87565b5083601560020181905550826015600301819055506001601560000160006101000a81548160ff0219169083151502179055507f46cb989ef9cef13e930e3b7f286225a086e716a90d63e0b7da85d310a9db0c9a6040518080602001828103825260358152602001807f4f7261636c697a65207175657279207761732073656e742c207374616e64696e81526020017f6720627920666f722074686520616e737765722e2e000000000000000000000081525060400191505060405180910390a1611af26040805190810160405280600381526020017f55524c0000000000000000000000000000000000000000000000000000000000815250611aed6040805190810160405280600481526020017f4d5346540000000000000000000000000000000000000000000000000000000081525089613677565b613853565b60078160001916905550600f60040154600a6000600754600019166000191681526020019081526020016000208160001916905550611ba46040805190810160405280600381526020017f55524c0000000000000000000000000000000000000000000000000000000000815250611b9f6040805190810160405280600481526020017f4141504c0000000000000000000000000000000000000000000000000000000081525089613677565b613853565b60078160001916905550600f60030154600a6000600754600019166000191681526020019081526020016000208160001916905550611c566040805190810160405280600381526020017f55524c0000000000000000000000000000000000000000000000000000000000815250611c516040805190810160405280600481526020017f474f4f470000000000000000000000000000000000000000000000000000000081525089613677565b613853565b60078160001916905550600f60050154600a6000600754600019166000191681526020019081526020016000208160001916905550603c84029050611d0f816040805190810160405280600381526020017f55524c0000000000000000000000000000000000000000000000000000000000815250611d0a6040805190810160405280600481526020017f474f4f47000000000000000000000000000000000000000000000000000000008152508a613677565b613d95565b600781600019169055507f436865636b536572766963650000000000000000000000000000000000000000600a6000600754600019166000191681526020019081526020016000208160001916905550611d75603c8402826132d190919063ffffffff16565b9050611df5816040805190810160405280600381526020017f55524c0000000000000000000000000000000000000000000000000000000000815250611df06040805190810160405280600481526020017f4d53465400000000000000000000000000000000000000000000000000000000815250896142d7565b613d95565b60078160001916905550600f60040154600a6000600754600019166000191681526020019081526020016000208160001916905550611ea8816040805190810160405280600381526020017f55524c0000000000000000000000000000000000000000000000000000000000815250611ea36040805190810160405280600481526020017f4141504c00000000000000000000000000000000000000000000000000000000815250896142d7565b613d95565b60078160001916905550600f60030154600a6000600754600019166000191681526020019081526020016000208160001916905550611f5b816040805190810160405280600381526020017f55524c0000000000000000000000000000000000000000000000000000000000815250611f566040805190810160405280600481526020017f474f4f4700000000000000000000000000000000000000000000000000000000815250896142d7565b613d95565b60078160001916905550600f60050154600a600060075460001916600019168152602001908152602001600020816000191690555080601560010181905550600191505b50949350505050565b600e5481565b6000601560000160009054906101000a900460ff161515611fce57600080fd5b601560000160019054906101000a900460ff16151515611fed57600080fd5b6000600c60003373ffffffffffffffffffffffffffffffffffffffff1673ffffffffffffffffffffffffffffffffffffffff1681526020019081526020016000206000015411156123ac57600090505b600c60003373ffffffffffffffffffffffffffffffffffffffff1673ffffffffffffffffffffffffffffffffffffffff168152602001908152602001600020600001548110156123ab57600c60003373ffffffffffffffffffffffffffffffffffffffff1673ffffffffffffffffffffffffffffffffffffffff168152602001908152602001600020600301818154811015156120d657fe5b906000526020600020906003020160020160009054906101000a900460ff16151561239e576121516001600c60003373ffffffffffffffffffffffffffffffffffffffff1673ffffffffffffffffffffffffffffffffffffffff168152602001908152602001600020600101546132d190919063ffffffff16565b506001600c60003373ffffffffffffffffffffffffffffffffffffffff1673ffffffffffffffffffffffffffffffffffffffff168152602001908152602001600020600301828154811015156121a357fe5b906000526020600020906003020160020160006101000a81548160ff02191690831515021790555061225c600c60003373ffffffffffffffffffffffffffffffffffffffff1673ffffffffffffffffffffffffffffffffffffffff1681526020019081526020016000206003018281548110151561221d57fe5b906000526020600020906003020160010154600b60008560001916600019168152602001908152602001600020600001546144b390919063ffffffff16565b600b60008460001916600019168152602001908152602001600020600001819055506122b06001600b60008560001916600019168152602001908152602001600020600401546132d190919063ffffffff16565b600b60008460001916600019168152602001908152602001600020600301819055507f884edad9ce6fa2440d8a54cc123490eb96d2768479d49ff9c7366125a942436433600c60003373ffffffffffffffffffffffffffffffffffffffff1673ffffffffffffffffffffffffffffffffffffffff1681526020019081526020016000206003018381548110151561234357fe5b906000526020600020906003020160010154604051808373ffffffffffffffffffffffffffffffffffffffff1673ffffffffffffffffffffffffffffffffffffffff1681526020018281526020019250505060405180910390a15b808060010191505061203d565b5b5050565b6000612440600b6000600f600501546000191660001916815260200190815260200160002060000154612432600b6000600f600401546000191660001916815260200190815260200160002060000154600b6000600f6003015460001916600019168152602001908152602001600020600001546132d190919063ffffffff16565b6132d190919063ffffffff16565b905090565b6000806000601560000160029054906101000a900460ff16151561246857600080fd5b600c60008573ffffffffffffffffffffffffffffffffffffffff1673ffffffffffffffffffffffffffffffffffffffff1681526020019081526020016000209050601560000160039054906101000a900460ff1615156125e757600091505b80600001548210156125e25780600301828154811015156124e457fe5b906000526020600020906003020160020160009054906101000a900460ff1615156125d557600b6000826003018481548110151561251e57fe5b9060005260206000209060030201600001546000191660001916815260200190815260200160002060050160009054906101000a900460ff16156125d4576125cf6127106125c1836003018581548110151561257657fe5b9060005260206000209060030201600101546125b3600e546125a5612710600d546144cc90919063ffffffff16565b61450790919063ffffffff16565b6144cc90919063ffffffff16565b61450790919063ffffffff16565b830192505b5b81806001019250506124c7565b612664565b600091505b806000015482101561266357806003018281548110151561260957fe5b906000526020600020906003020160020160009054906101000a900460ff16151561265657806003018281548110151561263f57fe5b906000526020600020906003020160010154830192505b81806001019250506125ec565b5b5050919050565b6000806000809054906101000a900473ffffffffffffffffffffffffffffffffffffffff1673ffffffffffffffffffffffffffffffffffffffff1614806126db575060006126d96000809054906101000a900473ffffffffffffffffffffffffffffffffffffffff16614522565b145b156126ec576126ea600061452d565b505b6000809054906101000a900473ffffffffffffffffffffffffffffffffffffffff1673ffffffffffffffffffffffffffffffffffffffff166338cc48316000604051602001526040518163ffffffff167c0100000000000000000000000000000000000000000000000000000000028152600401602060405180830381600087803b151561277957600080fd5b6102c65a03f1151561278a57600080fd5b5050506040518051905073ffffffffffffffffffffffffffffffffffffffff16600160009054906101000a900473ffffffffffffffffffffffffffffffffffffffff1673ffffffffffffffffffffffffffffffffffffffff161415156128d3576000809054906101000a900473ffffffffffffffffffffffffffffffffffffffff1673ffffffffffffffffffffffffffffffffffffffff166338cc48316000604051602001526040518163ffffffff167c0100000000000000000000000000000000000000000000000000000000028152600401602060405180830381600087803b151561287757600080fd5b6102c65a03f1151561288857600080fd5b50505060405180519050600160006101000a81548173ffffffffffffffffffffffffffffffffffffffff021916908373ffffffffffffffffffffffffffffffffffffffff1602179055505b600160009054906101000a900473ffffffffffffffffffffffffffffffffffffffff1673ffffffffffffffffffffffffffffffffffffffff1663c281d19e6000604051602001526040518163ffffffff167c0100000000000000000000000000000000000000000000000000000000028152600401602060405180830381600087803b151561296157600080fd5b6102c65a03f1151561297257600080fd5b50505060405180519050905090565b6000600b6000600f600301546000191660001916815260200190815260200160002060010154612710600b6000600f600301546000191660001916815260200190815260200160002060010154600b6000600f60030154600019166000191681526020019081526020016000206002015403028115156129fd57fe5b05600f60000181905550600b6000600f600401546000191660001916815260200190815260200160002060010154612710600b6000600f600401546000191660001916815260200190815260200160002060010154600b6000600f6004015460001916600019168152602001908152602001600020600201540302811515612a8157fe5b05600f60010181905550600b6000600f600501546000191660001916815260200190815260200160002060010154612710600b6000600f600501546000191660001916815260200190815260200160002060010154600b6000600f6005015460001916600019168152602001908152602001600020600201540302811515612b0557fe5b05600f60020181905550612b3b6009543073ffffffffffffffffffffffffffffffffffffffff16316144b390919063ffffffff16565b600d81905550612b6a6064612b5c6005600d546144cc90919063ffffffff16565b61450790919063ffffffff16565b9050612b8181600d546144b390919063ffffffff16565b600d81905550612b9c600954826132d190919063ffffffff16565b9050803073ffffffffffffffffffffffffffffffffffffffff1631111515612bc357600080fd5b600560009054906101000a900473ffffffffffffffffffffffffffffffffffffffff1673ffffffffffffffffffffffffffffffffffffffff166108fc829081150290604051600060405180830381858888f193505050501515612c2557600080fd5b600f60010154600f600001541315612e0f57600f60020154600f600001541315612cb4576001600b6000600f600301546000191660001916815260200190815260200160002060050160006101000a81548160ff021916908315150217905550600b6000600f600301546000191660001916815260200190815260200160002060000154600e81905550612e0a565b600f60000154600f600201541315612d31576001600b6000600f600501546000191660001916815260200190815260200160002060050160006101000a81548160ff021916908315150217905550600b6000600f600501546000191660001916815260200190815260200160002060000154600e81905550612e09565b6001600b6000600f600301546000191660001916815260200190815260200160002060050160006101000a81548160ff0219169083151502179055506001600b6000600f600501546000191660001916815260200190815260200160002060050160006101000a81548160ff021916908315150217905550612e02600b6000600f600501546000191660001916815260200190815260200160002060000154600b6000600f6003015460001916600019168152602001908152602001600020600001546132d190919063ffffffff16565b600e819055505b5b6132b0565b600f60000154600f600101541315612ff957600f60020154600f600101541315612e9e576001600b6000600f600401546000191660001916815260200190815260200160002060050160006101000a81548160ff021916908315150217905550600b6000600f600401546000191660001916815260200190815260200160002060000154600e81905550612ff4565b600f60010154600f600201541315612f1b576001600b6000600f600501546000191660001916815260200190815260200160002060050160006101000a81548160ff021916908315150217905550600b6000600f600501546000191660001916815260200190815260200160002060000154600e81905550612ff3565b6001600b6000600f600401546000191660001916815260200190815260200160002060050160006101000a81548160ff0219169083151502179055506001600b6000600f600501546000191660001916815260200190815260200160002060050160006101000a81548160ff021916908315150217905550612fec600b6000600f600501546000191660001916815260200190815260200160002060000154600b6000600f6004015460001916600019168152602001908152602001600020600001546132d190919063ffffffff16565b600e819055505b5b6132af565b600f60010154600f600201541315613076576001600b6000600f600501546000191660001916815260200190815260200160002060050160006101000a81548160ff021916908315150217905550600b6000600f600501546000191660001916815260200190815260200160002060000154600e819055506132ae565b600f60010154600f600201541215613164576001600b6000600f600401546000191660001916815260200190815260200160002060050160006101000a81548160ff0219169083151502179055506001600b6000600f600301546000191660001916815260200190815260200160002060050160006101000a81548160ff021916908315150217905550613159600b6000600f600301546000191660001916815260200190815260200160002060000154600b6000600f6004015460001916600019168152602001908152602001600020600001546132d190919063ffffffff16565b600e819055506132ad565b6001600b6000600f600501546000191660001916815260200190815260200160002060050160006101000a81548160ff0219169083151502179055506001600b6000600f600401546000191660001916815260200190815260200160002060050160006101000a81548160ff0219169083151502179055506001600b6000600f600301546000191660001916815260200190815260200160002060050160006101000a81548160ff0219169083151502179055506132a6600b6000600f600501546000191660001916815260200190815260200160002060000154613298600b6000600f600301546000191660001916815260200190815260200160002060000154600b6000600f6004015460001916600019168152602001908152602001600020600001546132d190919063ffffffff16565b6132d190919063ffffffff16565b600e819055505b5b5b5b6001601560000160026101000a81548160ff02191690831515021790555050565b60008082840190508381101515156132e557fe5b8091505092915050565b6000806000809054906101000a900473ffffffffffffffffffffffffffffffffffffffff1673ffffffffffffffffffffffffffffffffffffffff16148061335f5750600061335d6000809054906101000a900473ffffffffffffffffffffffffffffffffffffffff16614522565b145b156133705761336e600061452d565b505b6000809054906101000a900473ffffffffffffffffffffffffffffffffffffffff1673ffffffffffffffffffffffffffffffffffffffff166338cc48316000604051602001526040518163ffffffff167c0100000000000000000000000000000000000000000000000000000000028152600401602060405180830381600087803b15156133fd57600080fd5b6102c65a03f1151561340e57600080fd5b5050506040518051905073ffffffffffffffffffffffffffffffffffffffff16600160009054906101000a900473ffffffffffffffffffffffffffffffffffffffff1673ffffffffffffffffffffffffffffffffffffffff16141515613557576000809054906101000a900473ffffffffffffffffffffffffffffffffffffffff1673ffffffffffffffffffffffffffffffffffffffff166338cc48316000604051602001526040518163ffffffff167c0100000000000000000000000000000000000000000000000000000000028152600401602060405180830381600087803b15156134fb57600080fd5b6102c65a03f1151561350c57600080fd5b50505060405180519050600160006101000a81548173ffffffffffffffffffffffffffffffffffffffff021916908373ffffffffffffffffffffffffffffffffffffffff1602179055505b600160009054906101000a900473ffffffffffffffffffffffffffffffffffffffff1673ffffffffffffffffffffffffffffffffffffffff1663524f3889836000604051602001526040518263ffffffff167c01000000000000000000000000000000000000000000000000000000000281526004018080602001828103825283818151815260200191508051906020019080838360005b8381101561360a5780820151818401526020810190506135ef565b50505050905090810190601f1680156136375780820380516001836020036101000a031916815260200191505b5092505050602060405180830381600087803b151561365557600080fd5b6102c65a03f1151561366657600080fd5b505050604051805190509050919050565b61367f614c07565b613687614c07565b61368f614c07565b613697614c07565b61369f614c07565b608060405190810160405280605281526020017f6a736f6e2868747470733a2f2f7777772e616c70686176616e746167652e636f81526020017f2f71756572793f66756e6374696f6e3d54494d455f5345524945535f4441494c81526020017f595f41444a55535445442673796d626f6c3d00000000000000000000000000008152509350606060405190810160405280603181526020017f266170696b65793d464757524a474439494143443853485a292e2754696d652081526020017f53657269657320284461696c7929272e2700000000000000000000000000000081525092506040805190810160405280600c81526020017f272e27342e20636c6f736527000000000000000000000000000000000000000081525091506138006137c78461453e565b6137f26137ed6137d68b61453e565b6137df8961453e565b61456c90919063ffffffff16565b61453e565b61456c90919063ffffffff16565b905061384761380e8361453e565b61383961383461381d8a61453e565b6138268661453e565b61456c90919063ffffffff16565b61453e565b61456c90919063ffffffff16565b94505050505092915050565b60008060008060009054906101000a900473ffffffffffffffffffffffffffffffffffffffff1673ffffffffffffffffffffffffffffffffffffffff1614806138c5575060006138c36000809054906101000a900473ffffffffffffffffffffffffffffffffffffffff16614522565b145b156138d6576138d4600061452d565b505b6000809054906101000a900473ffffffffffffffffffffffffffffffffffffffff1673ffffffffffffffffffffffffffffffffffffffff166338cc48316000604051602001526040518163ffffffff167c0100000000000000000000000000000000000000000000000000000000028152600401602060405180830381600087803b151561396357600080fd5b6102c65a03f1151561397457600080fd5b5050506040518051905073ffffffffffffffffffffffffffffffffffffffff16600160009054906101000a900473ffffffffffffffffffffffffffffffffffffffff1673ffffffffffffffffffffffffffffffffffffffff16141515613abd576000809054906101000a900473ffffffffffffffffffffffffffffffffffffffff1673ffffffffffffffffffffffffffffffffffffffff166338cc48316000604051602001526040518163ffffffff167c0100000000000000000000000000000000000000000000000000000000028152600401602060405180830381600087803b1515613a6157600080fd5b6102c65a03f11515613a7257600080fd5b50505060405180519050600160006101000a81548173ffffffffffffffffffffffffffffffffffffffff021916908373ffffffffffffffffffffffffffffffffffffffff1602179055505b600160009054906101000a900473ffffffffffffffffffffffffffffffffffffffff1673ffffffffffffffffffffffffffffffffffffffff1663524f3889856000604051602001526040518263ffffffff167c01000000000000000000000000000000000000000000000000000000000281526004018080602001828103825283818151815260200191508051906020019080838360005b83811015613b70578082015181840152602081019050613b55565b50505050905090810190601f168015613b9d5780820380516001836020036101000a031916815260200191505b5092505050602060405180830381600087803b1515613bbb57600080fd5b6102c65a03f11515613bcc57600080fd5b50505060405180519050905062030d403a02670de0b6b3a764000001811115613bfb5760006001029150613d8e565b600160009054906101000a900473ffffffffffffffffffffffffffffffffffffffff1673ffffffffffffffffffffffffffffffffffffffff1663adf59f9982600087876000604051602001526040518563ffffffff167c0100000000000000000000000000000000000000000000000000000000028152600401808481526020018060200180602001838103835285818151815260200191508051906020019080838360005b83811015613cbc578082015181840152602081019050613ca1565b50505050905090810190601f168015613ce95780820380516001836020036101000a031916815260200191505b50838103825284818151815260200191508051906020019080838360005b83811015613d22578082015181840152602081019050613d07565b50505050905090810190601f168015613d4f5780820380516001836020036101000a031916815260200191505b50955050505050506020604051808303818588803b1515613d6f57600080fd5b6125ee5a03f11515613d8057600080fd5b505050506040518051905091505b5092915050565b60008060008060009054906101000a900473ffffffffffffffffffffffffffffffffffffffff1673ffffffffffffffffffffffffffffffffffffffff161480613e0757506000613e056000809054906101000a900473ffffffffffffffffffffffffffffffffffffffff16614522565b145b15613e1857613e16600061452d565b505b6000809054906101000a900473ffffffffffffffffffffffffffffffffffffffff1673ffffffffffffffffffffffffffffffffffffffff166338cc48316000604051602001526040518163ffffffff167c0100000000000000000000000000000000000000000000000000000000028152600401602060405180830381600087803b1515613ea557600080fd5b6102c65a03f11515613eb657600080fd5b5050506040518051905073ffffffffffffffffffffffffffffffffffffffff16600160009054906101000a900473ffffffffffffffffffffffffffffffffffffffff1673ffffffffffffffffffffffffffffffffffffffff16141515613fff576000809054906101000a900473ffffffffffffffffffffffffffffffffffffffff1673ffffffffffffffffffffffffffffffffffffffff166338cc48316000604051602001526040518163ffffffff167c0100000000000000000000000000000000000000000000000000000000028152600401602060405180830381600087803b1515613fa357600080fd5b6102c65a03f11515613fb457600080fd5b50505060405180519050600160006101000a81548173ffffffffffffffffffffffffffffffffffffffff021916908373ffffffffffffffffffffffffffffffffffffffff1602179055505b600160009054906101000a900473ffffffffffffffffffffffffffffffffffffffff1673ffffffffffffffffffffffffffffffffffffffff1663524f3889856000604051602001526040518263ffffffff167c01000000000000000000000000000000000000000000000000000000000281526004018080602001828103825283818151815260200191508051906020019080838360005b838110156140b2578082015181840152602081019050614097565b50505050905090810190601f1680156140df5780820380516001836020036101000a031916815260200191505b5092505050602060405180830381600087803b15156140fd57600080fd5b6102c65a03f1151561410e57600080fd5b50505060405180519050905062030d403a02670de0b6b3a76400000181111561413d57600060010291506142cf565b600160009054906101000a900473ffffffffffffffffffffffffffffffffffffffff1673ffffffffffffffffffffffffffffffffffffffff1663adf59f99828787876000604051602001526040518563ffffffff167c0100000000000000000000000000000000000000000000000000000000028152600401808481526020018060200180602001838103835285818151815260200191508051906020019080838360005b838110156141fd5780820151818401526020810190506141e2565b50505050905090810190601f16801561422a5780820380516001836020036101000a031916815260200191505b50838103825284818151815260200191508051906020019080838360005b83811015614263578082015181840152602081019050614248565b50505050905090810190601f1680156142905780820380516001836020036101000a031916815260200191505b50955050505050506020604051808303818588803b15156142b057600080fd5b6125ee5a03f115156142c157600080fd5b505050506040518051905091505b509392505050565b6142df614c07565b6142e7614c07565b6142ef614c07565b6142f7614c07565b6142ff614c07565b608060405190810160405280605a81526020017f6a736f6e2868747470733a2f2f7777772e616c70686176616e746167652e636f81526020017f2f71756572793f66756e6374696f6e3d54494d455f5345524945535f494e545281526020017f4144415926696e74657276616c3d316d696e2673796d626f6c3d0000000000008152509350606060405190810160405280603081526020017f266170696b65793d464757524a474439494143443853485a292e2754696d652081526020017f5365726965732028316d696e29272e270000000000000000000000000000000081525092506040805190810160405280600c81526020017f272e27342e20636c6f736527000000000000000000000000000000000000000081525091506144606144278461453e565b61445261444d6144368b61453e565b61443f8961453e565b61456c90919063ffffffff16565b61453e565b61456c90919063ffffffff16565b90506144a761446e8361453e565b61449961449461447d8a61453e565b6144868661453e565b61456c90919063ffffffff16565b61453e565b61456c90919063ffffffff16565b94505050505092915050565b60008282111515156144c157fe5b818303905092915050565b60008060008414156144e15760009150614500565b82840290508284828115156144f257fe5b041415156144fc57fe5b8091505b5092915050565b600080828481151561451557fe5b0490508091505092915050565b6000813b9050919050565b60006145376145ea565b9050919050565b614546614c1b565b600060208301905060408051908101604052808451815260200182815250915050919050565b614574614c07565b61457c614c07565b600083600001518560000151016040518059106145965750595b9080825280601f01601f191660200182016040525091506020820190506145c68186602001518760000151614a79565b6145df8560000151820185602001518660000151614a79565b819250505092915050565b60008061460a731d3b2638a7cc9f2cb3d298a3da7a90b67e5506ed614522565b11156146ab57731d3b2638a7cc9f2cb3d298a3da7a90b67e5506ed6000806101000a81548173ffffffffffffffffffffffffffffffffffffffff021916908373ffffffffffffffffffffffffffffffffffffffff1602179055506146a26040805190810160405280600b81526020017f6574685f6d61696e6e6574000000000000000000000000000000000000000000815250614ac4565b60019050614a76565b60006146ca73c03a2615d5efaf5f49f60b7bb6583eaec212fdf1614522565b111561476b5773c03a2615d5efaf5f49f60b7bb6583eaec212fdf16000806101000a81548173ffffffffffffffffffffffffffffffffffffffff021916908373ffffffffffffffffffffffffffffffffffffffff1602179055506147626040805190810160405280600c81526020017f6574685f726f707374656e330000000000000000000000000000000000000000815250614ac4565b60019050614a76565b600061478a73b7a07bcf2ba2f2703b24c0691b5278999c59ac7e614522565b111561482b5773b7a07bcf2ba2f2703b24c0691b5278999c59ac7e6000806101000a81548173ffffffffffffffffffffffffffffffffffffffff021916908373ffffffffffffffffffffffffffffffffffffffff1602179055506148226040805190810160405280600981526020017f6574685f6b6f76616e0000000000000000000000000000000000000000000000815250614ac4565b60019050614a76565b600061484a73146500cfd35b22e4a392fe0adc06de1a1368ed48614522565b11156148eb5773146500cfd35b22e4a392fe0adc06de1a1368ed486000806101000a81548173ffffffffffffffffffffffffffffffffffffffff021916908373ffffffffffffffffffffffffffffffffffffffff1602179055506148e26040805190810160405280600b81526020017f6574685f72696e6b656279000000000000000000000000000000000000000000815250614ac4565b60019050614a76565b600061490a736f485c8bf6fc43ea212e93bbf8ce046c7f1cb475614522565b111561496d57736f485c8bf6fc43ea212e93bbf8ce046c7f1cb4756000806101000a81548173ffffffffffffffffffffffffffffffffffffffff021916908373ffffffffffffffffffffffffffffffffffffffff16021790555060019050614a76565b600061498c7320e12a1f859b3feae5fb2a0a32c18f5a65555bbf614522565b11156149ef577320e12a1f859b3feae5fb2a0a32c18f5a65555bbf6000806101000a81548173ffffffffffffffffffffffffffffffffffffffff021916908373ffffffffffffffffffffffffffffffffffffffff16021790555060019050614a76565b6000614a0e7351efaf4c8b3c9afbd5ab9f4bbc82784ab6ef8faa614522565b1115614a71577351efaf4c8b3c9afbd5ab9f4bbc82784ab6ef8faa6000806101000a81548173ffffffffffffffffffffffffffffffffffffffff021916908373ffffffffffffffffffffffffffffffffffffffff16021790555060019050614a76565b600090505b90565b60005b602082101515614aa15782518452602084019350602083019250602082039150614a7c565b6001826020036101000a0390508019835116818551168181178652505050505050565b8060029080519060200190614ada929190614b87565b5050565b602060405190810160405280600081525090565b602060405190810160405280600081525090565b602060405190810160405280600081525090565b602060405190810160405280600081525090565b60606040519081016040528060008019168152602001600081526020016000151581525090565b815481835581811511614b8257600302816003028360005260206000209182019101614b819190614c35565b5b505050565b828054600181600116156101000203166002900490600052602060002090601f016020900481019282601f10614bc857805160ff1916838001178555614bf6565b82800160010185558215614bf6579182015b82811115614bf5578251825591602001919060010190614bda565b5b509050614c039190614c78565b5090565b602060405190810160405280600081525090565b604080519081016040528060008152602001600081525090565b614c7591905b80821115614c715760008082016000905560018201600090556002820160006101000a81549060ff021916905550600301614c3b565b5090565b90565b614c9a91905b80821115614c96576000816000905550600101614c7e565b5090565b90565b60008060009054906101000a900473ffffffffffffffffffffffffffffffffffffffff1673ffffffffffffffffffffffffffffffffffffffff161480614d0c57506000614d0a6000809054906101000a900473ffffffffffffffffffffffffffffffffffffffff16614522565b145b15614d1d57614d1b600061452d565b505b6000809054906101000a900473ffffffffffffffffffffffffffffffffffffffff1673ffffffffffffffffffffffffffffffffffffffff166338cc48316000604051602001526040518163ffffffff167c0100000000000000000000000000000000000000000000000000000000028152600401602060405180830381600087803b1515614daa57600080fd5b6102c65a03f11515614dbb57600080fd5b5050506040518051905073ffffffffffffffffffffffffffffffffffffffff16600160009054906101000a900473ffffffffffffffffffffffffffffffffffffffff1673ffffffffffffffffffffffffffffffffffffffff16141515614f04576000809054906101000a900473ffffffffffffffffffffffffffffffffffffffff1673ffffffffffffffffffffffffffffffffffffffff166338cc48316000604051602001526040518163ffffffff167c0100000000000000000000000000000000000000000000000000000000028152600401602060405180830381600087803b1515614ea857600080fd5b6102c65a03f11515614eb957600080fd5b50505060405180519050600160006101000a81548173ffffffffffffffffffffffffffffffffffffffff021916908373ffffffffffffffffffffffffffffffffffffffff1602179055505b600160009054906101000a900473ffffffffffffffffffffffffffffffffffffffff1673ffffffffffffffffffffffffffffffffffffffff1663688dcfd7826040518263ffffffff167c010000000000000000000000000000000000000000000000000000000002815260040180827effffffffffffffffffffffffffffffffffffffffffffffffffffffffffffff19167effffffffffffffffffffffffffffffffffffffffffffffffffffffffffffff19168152602001915050600060405180830381600087803b1515614fd857600080fd5b6102c65a03f11515614fe957600080fd5b505050505600a165627a7a7230582022c832a53d575a1a9c99d8680c6a9f7c6f279ae63ae6131c968a681bf241ee090029",
  "source": "pragma solidity ^0.4.18;\r\n\r\nimport \"../installed_contracts/oraclize/contracts/usingOraclize.sol\";\r\nimport \"../installed_contracts/zeppelin-solidity/contracts/math/SafeMath.sol\";\r\nimport \"../installed_contracts/stringutils/strings.sol\";\r\n\r\ncontract StocksBetting is usingOraclize {\r\n    using strings for *;\r\n    using SafeMath for uint256; //using safemath\r\n\r\n    address public owner; //owner address\r\n\r\n    bytes32 stockId; // variable to differentiate different callbacks\r\n    bytes32 queryId; // temp variable to store oraclize IDs\r\n\r\n    uint stocksCount = 3; // variable to check if all prices are received\r\n    uint public queryProp = 0; // ethers to prop the oraclize queries\r\n    \r\n    string public constant version = \"0.0.2\";\r\n    \r\n    struct ActionStatusStruct {\r\n        bool  isOpen; // boolean: check if betting is open\r\n        bool  isStart; //boolean: check if betting has started\r\n        bool  isEnd; //boolean: check if betting has ended\r\n        bool  isVoided; //boolean: check if betting has been voided\r\n        uint  duration; // duration of the betting\r\n        uint durationLockBetReceiving;\r\n        uint durationBettingResult;\r\n        uint  momentStart; // timestamp of when the betting starts\r\n        string momentCloseValue;\r\n        string momentOpen1MValue;\r\n    }\r\n    \r\n    struct StocksStruct {\r\n        int oddsAAPL; // AAPL odds value\r\n        int oddsMSFT; // MSFT odds value\r\n        int oddsGOOG; // GOOG odds value\r\n        bytes32 AAPL;\r\n        bytes32 MSFT;\r\n        bytes32 GOOG;\r\n    }\r\n\r\n    struct BetInfo {\r\n        bytes32 stock; // stock on which amount is bet on\r\n        uint amount; // amount bet by Bettor\r\n        bool isCancelled;\r\n    }\r\n\r\n    struct StockInfo {\r\n        uint totalPool; // total stock pool\r\n        uint priceStart; // locking price\r\n        uint priceEnd; // ending price\r\n        uint betsCount; // number of bets\r\n        uint canceledBetsCount; // number of canceled bets\r\n        bool isWinner;\r\n    }\r\n\r\n    struct BettorInfo {\r\n        uint betsCount; // number of bets\r\n        uint canceledBetsCount; // number of canceled bets\r\n        bool isRewarded; // boolean: check for double spending\r\n        BetInfo[] bets; // array of bets\r\n    }\r\n\r\n    mapping (bytes32 => bytes32) oraclizeIndex; // mapping oraclize IDs with stocks\r\n    mapping (bytes32 => StockInfo) public stocksIndex; // mapping stocks with pool information\r\n    //mapping (bytes32 => string) public stocksDailyURL;\r\n    //mapping (bytes32 => string) public stocksIntraDayURL;\r\n    mapping (address => BettorInfo) public bettorsIndex; // mapping voter address with Bettor information\r\n\r\n    uint public totalReward; // total reward to be awarded\r\n    uint public totalPool;\r\n\r\n    // data access structures\r\n    StocksStruct public stocks;\r\n    ActionStatusStruct public actionStatus;\r\n\r\n    // tracking events\r\n    event newOraclizeQuery(string description);\r\n    event newPriceTicker(uint price);\r\n    event Deposit(address from, uint256 val);\r\n    event Withdraw(address to, uint256 val);\r\n\r\n    // constructor\r\n    function StocksBetting() payable public {\r\n        oraclize_setProof(proofType_TLSNotary | proofStorage_IPFS);\r\n        owner = msg.sender;\r\n        queryProp = msg.value;\r\n        // oraclize_setCustomGasPrice(4000000000 wei);\r\n        stocks.AAPL = bytes32(\"AAPL\");\r\n        stocks.MSFT = bytes32(\"MSFT\");\r\n        stocks.GOOG = bytes32(\"GOOG\");\r\n    }\r\n\r\n    // modifiers for restricting access to methods\r\n    modifier onlyOwner {\r\n        require(owner == msg.sender);\r\n        _;\r\n    }\r\n\r\n    modifier afterBettingOpen {\r\n        require(actionStatus.isOpen);\r\n        _;\r\n    }\r\n    \r\n    modifier beforeBetReceiving {\r\n        require(!actionStatus.isOpen);\r\n        _;\r\n    }\r\n\r\n    modifier afterBetting {\r\n        require(actionStatus.isEnd);\r\n        _;\r\n    }\r\n\r\n    modifier beforeBettingStart {\r\n        require(!actionStatus.isStart);\r\n        _;\r\n    }\r\n\r\n    //oraclize callback method\r\n    function __callback(bytes32 myid, string result, bytes proof) {\r\n        if (msg.sender != oraclize_cbAddress()) throw;\r\n        stockId = oraclizeIndex[myid];\r\n        if (stockId == bytes32(\"CheckService\")) {\r\n            actionStatus.isStart = true;\r\n        } else {\r\n            if (actionStatus.isStart) {\r\n                stocksIndex[stockId].priceEnd = stringToUintNormalize(result);\r\n                stocksCount = stocksCount - 1;\r\n                if (stocksCount == 0) {\r\n                    reward();\r\n                }\r\n            } else {\r\n                stocksIndex[stockId].priceStart = stringToUintNormalize(result);\r\n            }\r\n        }\r\n    }\r\n\r\n    // cancel bet\r\n    function cancelAllBet(bytes32 stock) external afterBettingOpen beforeBettingStart payable {\r\n        uint i;\r\n        if (bettorsIndex[msg.sender].betsCount > 0) {\r\n            for (i = 0; i < bettorsIndex[msg.sender].betsCount; i++) {\r\n                if (!bettorsIndex[msg.sender].bets[i].isCancelled) {\r\n                    bettorsIndex[msg.sender].canceledBetsCount.add(1);\r\n                    bettorsIndex[msg.sender].bets[i].isCancelled = true;\r\n                    stocksIndex[stock].totalPool = (stocksIndex[stock].totalPool).sub(bettorsIndex[msg.sender].bets[i].amount);\r\n                    stocksIndex[stock].betsCount = stocksIndex[stock].canceledBetsCount.add(1);\r\n                    Withdraw(msg.sender, bettorsIndex[msg.sender].bets[i].amount);\r\n                }\r\n            }\r\n        }\r\n    }\r\n\r\n    // place a bet\r\n    function sendBet(bytes32 stock) external afterBettingOpen beforeBettingStart payable {\r\n        require(msg.value >= 0.1 ether && msg.value <= 1.0 ether);\r\n        BetInfo memory currentBet;\r\n        currentBet.amount = msg.value;\r\n        currentBet.stock = stock;\r\n        bettorsIndex[msg.sender].bets.push(currentBet);\r\n        bettorsIndex[msg.sender].betsCount.add(1);\r\n        stocksIndex[stock].totalPool = (stocksIndex[stock].totalPool).add(msg.value);\r\n        stocksIndex[stock].betsCount = stocksIndex[stock].betsCount.add(1);\r\n        Deposit(msg.sender, msg.value);\r\n    }\r\n\r\n/*\r\n    function setupStocksURLs(string momentCloseValue, string momentOpen1MValue) internal {\r\n        stocksDailyURL[stocks.MSFT] = getURLDaily(\"MSFT\", momentCloseValue);\r\n        stocksDailyURL[stocks.AAPL] = getURLDaily(\"AAPL\", momentCloseValue);\r\n        stocksDailyURL[stocks.GOOG] = getURLDaily(\"GOOG\", momentCloseValue);\r\n\r\n        stocksIntraDayURL[stocks.MSFT] = getURLIntraDay(\"MSFT\", momentOpen1MValue);\r\n        stocksIntraDayURL[stocks.AAPL] = getURLIntraDay(\"AAPL\", momentOpen1MValue);\r\n        stocksIntraDayURL[stocks.GOOG] = getURLIntraDay(\"GOOG\", momentOpen1MValue);\r\n    }\r\n*/\r\n\r\n    function getURLDaily(string code, string moment) internal returns(string) {\r\n\r\n        string memory characterStringPart1 = \"json(https://www.alphavantage.co/query?function=TIME_SERIES_DAILY_ADJUSTED&symbol=\";\r\n        string memory characterStringPart2 = \"&apikey=FGWRJGD9IACD8SHZ).'Time Series (Daily)'.'\";\r\n        string memory characterStringPart3 = \"'.'4. close'\";\r\n\r\n        var s = characterStringPart1.toSlice().concat(code.toSlice()).toSlice().concat(characterStringPart2.toSlice());\r\n        return s.toSlice().concat(moment.toSlice()).toSlice().concat(characterStringPart3.toSlice());\r\n    }\r\n\r\n    function getURLIntraDay(string code, string moment) internal returns(string) {\r\n\r\n        string memory characterStringPart1 = \"json(https://www.alphavantage.co/query?function=TIME_SERIES_INTRADAY&interval=1min&symbol=\";\r\n        string memory characterStringPart2 = \"&apikey=FGWRJGD9IACD8SHZ).'Time Series (1min)'.'\";\r\n        string memory characterStringPart3 = \"'.'4. close'\";\r\n\r\n        var s = characterStringPart1.toSlice().concat(code.toSlice()).toSlice().concat(characterStringPart2.toSlice());\r\n        return s.toSlice().concat(moment.toSlice()).toSlice().concat(characterStringPart3.toSlice());\r\n    }\r\n\r\n    function setupBetting(string momentCloseValue, string momentOpen1MValue, uint durationLockBetReceiving, uint durationBettingResult) public onlyOwner beforeBetReceiving payable returns(bool) {\r\n        if (oraclize_getPrice(\"URL\") > this.balance) {\r\n            newOraclizeQuery(\"Oraclize query was NOT sent, please add some ETH to cover for the query fee\");\r\n            return false;\r\n        } else {\r\n            actionStatus.momentStart = block.timestamp;\r\n            actionStatus.momentCloseValue = momentCloseValue;\r\n            actionStatus.momentOpen1MValue = momentOpen1MValue;\r\n            actionStatus.durationLockBetReceiving = durationLockBetReceiving;\r\n            actionStatus.durationBettingResult = durationBettingResult;\r\n            actionStatus.isOpen = true;\r\n\r\n            newOraclizeQuery(\"Oraclize query was sent, standing by for the answer..\");\r\n            ///////////////////////////////////\r\n            // Get close market price\r\n            queryId = oraclize_query(\"URL\", getURLDaily(\"MSFT\", momentCloseValue));\r\n            oraclizeIndex[queryId] = stocks.MSFT;\r\n\r\n            queryId = oraclize_query(\"URL\", getURLDaily(\"AAPL\", momentCloseValue));\r\n            oraclizeIndex[queryId] = stocks.AAPL;\r\n\r\n            queryId = oraclize_query(\"URL\", getURLDaily(\"GOOG\", momentCloseValue));\r\n            oraclizeIndex[queryId] = stocks.GOOG;\r\n\r\n            ///////////////////////////////////\r\n            // Check service availability and Lock Bet Receiving\r\n            uint delay = durationLockBetReceiving * 60;\r\n            queryId = oraclize_query(delay, \"URL\", getURLDaily(\"GOOG\", momentCloseValue));\r\n            oraclizeIndex[queryId] = bytes32(\"CheckService\");\r\n\r\n            ///////////////////////////////////\r\n            // Get 1 min open market price\r\n            delay = delay.add(durationBettingResult * 60);\r\n            queryId = oraclize_query(delay, \"URL\", getURLIntraDay(\"MSFT\", momentOpen1MValue));\r\n            oraclizeIndex[queryId] = stocks.MSFT;\r\n\r\n            queryId = oraclize_query(delay, \"URL\", getURLIntraDay(\"AAPL\", momentOpen1MValue));\r\n            oraclizeIndex[queryId] = stocks.AAPL;\r\n\r\n            queryId = oraclize_query(delay, \"URL\", getURLIntraDay(\"GOOG\", momentOpen1MValue));\r\n            oraclizeIndex[queryId] = stocks.GOOG;\r\n\r\n            actionStatus.duration = delay;\r\n            return true;\r\n        }\r\n    }\r\n\r\n\r\n    // method to calculate reward (called internally by callback)\r\n    function reward() internal {\r\n        /*\r\n        calculating the difference in price with a precision of 5 digits\r\n        not using safemath since signed integers are handled\r\n        */\r\n        stocks.oddsAAPL = int(stocksIndex[stocks.AAPL].priceEnd - stocksIndex[stocks.AAPL].priceStart) * 10000 / int(stocksIndex[stocks.AAPL].priceStart);\r\n        stocks.oddsMSFT = int(stocksIndex[stocks.MSFT].priceEnd - stocksIndex[stocks.MSFT].priceStart) * 10000 / int(stocksIndex[stocks.MSFT].priceStart);\r\n        stocks.oddsGOOG = int(stocksIndex[stocks.GOOG].priceEnd - stocksIndex[stocks.GOOG].priceStart) * 10000 / int(stocksIndex[stocks.GOOG].priceStart);\r\n\r\n        // throws when no bets are placed. since oraclize will eat some ethers from the queryProp and queryProp will be > balance\r\n        totalReward = this.balance.sub(queryProp); \r\n\r\n        // fee 5%\r\n        uint fee = totalReward.mul(5).div(100);\r\n        totalReward = totalReward.sub(fee);\r\n        fee = fee.add(queryProp);\r\n        require(this.balance > fee);\r\n        owner.transfer(fee);\r\n\r\n        if (stocks.oddsAAPL > stocks.oddsMSFT) {\r\n            if (stocks.oddsAAPL > stocks.oddsGOOG) {\r\n                stocksIndex[stocks.AAPL].isWinner = true;\r\n                totalPool = stocksIndex[stocks.AAPL].totalPool;\r\n            } else if (stocks.oddsGOOG > stocks.oddsAAPL) {\r\n                stocksIndex[stocks.GOOG].isWinner = true;\r\n                totalPool = stocksIndex[stocks.GOOG].totalPool;\r\n            } else {\r\n                stocksIndex[stocks.AAPL].isWinner = true;\r\n                stocksIndex[stocks.GOOG].isWinner = true;\r\n                totalPool = stocksIndex[stocks.AAPL].totalPool.add(stocksIndex[stocks.GOOG].totalPool);\r\n            }\r\n        } else if (stocks.oddsMSFT > stocks.oddsAAPL) {\r\n            if (stocks.oddsMSFT > stocks.oddsGOOG) {\r\n                stocksIndex[stocks.MSFT].isWinner = true;\r\n                totalPool = stocksIndex[stocks.MSFT].totalPool;\r\n            } else if (stocks.oddsGOOG > stocks.oddsMSFT) {\r\n                stocksIndex[stocks.GOOG].isWinner = true;\r\n                totalPool = stocksIndex[stocks.GOOG].totalPool;\r\n            } else {\r\n                stocksIndex[stocks.MSFT].isWinner = true;\r\n                stocksIndex[stocks.GOOG].isWinner = true;\r\n                totalPool = stocksIndex[stocks.MSFT].totalPool.add(stocksIndex[stocks.GOOG].totalPool);\r\n            }\r\n        } else {\r\n            if (stocks.oddsGOOG > stocks.oddsMSFT) {\r\n                stocksIndex[stocks.GOOG].isWinner = true;\r\n                totalPool = stocksIndex[stocks.GOOG].totalPool;\r\n            } else if (stocks.oddsGOOG < stocks.oddsMSFT) {\r\n                stocksIndex[stocks.MSFT].isWinner = true;\r\n                stocksIndex[stocks.AAPL].isWinner = true;\r\n                totalPool = stocksIndex[stocks.MSFT].totalPool.add(stocksIndex[stocks.AAPL].totalPool);\r\n            } else {\r\n                stocksIndex[stocks.GOOG].isWinner = true;\r\n                stocksIndex[stocks.MSFT].isWinner = true;\r\n                stocksIndex[stocks.AAPL].isWinner = true;\r\n                totalPool = stocksIndex[stocks.MSFT].totalPool.add(stocksIndex[stocks.AAPL].totalPool).add(stocksIndex[stocks.GOOG].totalPool);\r\n            }\r\n        }\r\n        actionStatus.isEnd = true;\r\n    }\r\n\r\n    // method to calculate an invidual's reward\r\n    function rewardCalculate(address candidate) internal afterBetting constant returns(uint winnerReward) {\r\n        uint i;\r\n        BettorInfo storage bettor = bettorsIndex[candidate];\r\n        if (!actionStatus.isVoided) {\r\n            for (i = 0; i < bettor.betsCount; i++) {\r\n                if (!bettor.bets[i].isCancelled) {\r\n                    if (stocksIndex[bettor.bets[i].stock].isWinner) {\r\n                        winnerReward += (((totalReward.mul(10000)).div(totalPool)).mul(bettor.bets[i].amount)).div(10000);\r\n                    }\r\n                }\r\n            }\r\n        } else {\r\n            for (i = 0; i < bettor.betsCount; i++) {\r\n                if (!bettor.bets[i].isCancelled) {\r\n                    winnerReward += bettor.bets[i].amount;\r\n                }\r\n            }\r\n        }\r\n    }\r\n\r\n    // method to just check the reward amount\r\n    function rewardCheck() public afterBetting constant returns (uint) {\r\n        require(!bettorsIndex[msg.sender].isRewarded);\r\n        return rewardCalculate(msg.sender);\r\n    }\r\n\r\n    // method to claim the reward amount\r\n    function rewardClaim() afterBetting public {\r\n        require(!bettorsIndex[msg.sender].isRewarded);\r\n        uint transferAmount = rewardCalculate(msg.sender);\r\n        require(this.balance > transferAmount);\r\n        bettorsIndex[msg.sender].isRewarded = true;\r\n        msg.sender.transfer(transferAmount);\r\n        Withdraw(msg.sender, transferAmount);\r\n    }\r\n\r\n    // utility function to convert string to integer with precision consideration\r\n    function stringToUintNormalize(string s) public constant returns (uint result) {\r\n        uint p = 2;\r\n        bool precision = false;\r\n        bytes memory b = bytes(s);\r\n        uint i;\r\n        result = 0;\r\n        for (i = 0; i < b.length; i++) {\r\n            if (precision == true) {p = p - 1;}\r\n            if (uint(b[i]) == 46) {precision = true;}\r\n            uint c = uint(b[i]);\r\n            if (c >= 48 && c <= 57) {result = result * 10 + (c - 48);}\r\n            if (precision==true && p == 0) {return result;}\r\n        }\r\n        while (p != 0) {\r\n            result = result * 10;\r\n            p = p - 1;\r\n        }\r\n    }\r\n\r\n    // exposing the stock pool details\r\n    function getStockInfo(bytes32 index) public constant returns (uint, uint, uint, uint, uint) {\r\n        return (stocksIndex[index].totalPool, stocksIndex[index].priceStart, stocksIndex[index].priceEnd, stocksIndex[index].betsCount, stocksIndex[index].canceledBetsCount);\r\n    }\r\n\r\n    // exposing the total reward amount\r\n    function getRewardTotal() public constant returns (uint) {\r\n        return (stocksIndex[stocks.AAPL].totalPool.add(stocksIndex[stocks.MSFT].totalPool).add(stocksIndex[stocks.GOOG].totalPool));\r\n    }\r\n\r\n    function getBettorInfo() public constant returns (uint, bytes32[], uint[], bool[]) {\r\n        BettorInfo storage bettorInfoTemp = bettorsIndex[msg.sender];\r\n\r\n        bytes32[] memory bettorStocks = new bytes32[](bettorInfoTemp.bets.length);\r\n        uint[] memory bettorAmounts = new uint[](bettorInfoTemp.bets.length);\r\n        bool[] memory isCancelled = new bool[](bettorInfoTemp.bets.length);\r\n\r\n        for (uint i = 0; i < bettorInfoTemp.bets.length; i++) {\r\n            BetInfo storage bet = bettorInfoTemp.bets[i];\r\n            bettorStocks[i] = bet.stock;\r\n            bettorAmounts[i] = bet.amount;\r\n            isCancelled[i] = bet.isCancelled;\r\n        }\r\n\r\n        return (bettorInfoTemp.betsCount, bettorStocks, bettorAmounts, isCancelled);\r\n    }\r\n\r\n    // in case of any errors in betting, enable full refund for the Bettors to claim\r\n    function refundKill() public onlyOwner {\r\n        require(now > actionStatus.momentStart + actionStatus.duration);\r\n        require((actionStatus.isOpen && !actionStatus.isStart) || (actionStatus.isStart && !actionStatus.isEnd));\r\n        actionStatus.isVoided = true;\r\n        actionStatus.isEnd = true;\r\n    }\r\n\r\n    // method to claim unclaimed winnings after 30 day notice period\r\n    function recovery() public onlyOwner {\r\n        require(now > actionStatus.momentStart+actionStatus.duration + 30 days);\r\n        require(actionStatus.isVoided || actionStatus.isEnd);\r\n        selfdestruct(owner);\r\n    }\r\n}",
  "sourcePath": "D:\\Maining\\!_ICO\\stocks.bet\\contracts\\contracts\\StocksBetting.sol",
  "compiler": {
    "name": "solc",
    "version": "0.4.18+commit.9cf6e910.Emscripten.clang"
  },
  "schemaVersion": "1.0.1",
  "updatedAt": "2018-02-10T21:39:45.342Z"
}